:020000040000FA
:04000000F9EF17F00D
:08000800C0EF19F01F51286F31
:100010001E51266F276BD89026372737263727376C
:1000200026372737263727373E0E2627000E272369
:10003000000EFB6EFB222751FA6E2651F96E000E60
:10004000F86E000EF76E9C0EF66E45EF00F0000E97
:10005000F86E000EF76EDC0EF66E45EF00F0000E47
:10006000F86E010EF76E080EF66E45EF00F0000E0A
:10007000F86E010EF76E100EF66E45EF00F0000EF2
:10008000F86E010EF76E180EF66E2851F626D8B0EF
:10009000F72AD8B0F82A0800F5501200000C1925EC
:1000A000313C47515A626A70757A7D7E7F7E7D7AD7
:1000B00075706A625A51473C3125190C00F4E7DB30
:1000C000CFC4B9AFA69E96908B86838281828386A9
:1000D0008B90969EA6AFB9C4CFDBE7F45468616EEF
:1000E0006B20596F7520445420616E64204B7279E7
:1000F00075732021212120203330332026204445D0
:100100004E48414320202000000102030405060759
:10011000000406080C0F111600020506080B0F1448
:100120001453000001E11200F90E0000000000006D
:1001300000000000000000000000000000000000BF
:1001400000000000000000000000000000000000AF
:10015000000000000000000000000000000000009F
:100160000000FF0FD8A4E1D700000000000000004D
:10017000000000000000000000000000000000007F
:10018000000000000000000000000000000000006F
:10019000000000000000000000000000000000005F
:1001A0000000142FC1D712001453000001E1120007
:1001B000130EFF0FD8A4FDD70000142FF9D712009B
:1001C0000553000001E11200C70EFF0FD8A4FDD7B0
:1001D0000000052FF9D71200FA0E146F90EC00F012
:1001E000FA0E146F90EC00F0FA0E146F90EC00F021
:1001F000FA0E146F90EC00F0052FEED712000301F9
:10020000032B0251001B0351001B00510125016FFC
:100210000151346FD890343102270051021B025132
:10022000336F1200170E6B14D8B46DB4FBD71200E5
:1002300012EC01F0A49EA49C6F6A12EC01F0A49E43
:10024000A49C2B516F6E12000201E0B102D0E16B51
:10025000E081E0B303D0BC6BBD6BE083E0B502D0BE
:10026000E26BE085E0B702D0E36BE087E0B903D052
:10027000BE6BBF6BE089D96701D01200DB5103016F
:100280002B6F18EC01F00201DA5302E0DA0704D018
:10029000010EDC6FFE51DA6FBC6BBD6BE16B040EBF
:1002A000E1610AD1020E0301326F420E306F02018A
:1002B000E1510301316F2F6B31372F3731372F3732
:1002C00031372F37F80E3117305131272F51322364
:1002D00031510201BE6F030132510201BF6F02EEC4
:1002E00042F0E950E15103012B6F2C6B2B372C3777
:1002F0002B372C372B372C37F80E2B15E9262C51A2
:10030000EA22060EE926D8B0EA2AEF502D6F2D53C7
:100310000AE02D0546E0020E2D6301D058D0030EF1
:100320002D6388D07DD00201BF51EA6EBE51E96EC7
:10033000020EE926D8B0EA2AEE5003012E6F800E95
:10034000EF5C02E1000E2E5D15E20201BF51EA6E84
:10035000BE51E96E020EE926D8B0EA2AEE5003013A
:100360002F6FEF502E6FD8902E332E51E00F0201D9
:10037000E36F62D00201BF51EA6EBE51E96E020E18
:10038000E926D8B0EA2AEE5003012E6F000E2E5F48
:10039000800EEF582F6FD8902F311F080201E36FA6
:1003A0004BD00201BF51EA6EBE51E96E020EE92642
:1003B000D8B0EA2AEE5003012F6FEF302E6F2E33A4
:1003C0003F0E2E172E51E00F0201E36F35D00201D0
:1003D000BF51EA6EBE51E96E020EE926D8B0EA2A94
:1003E000EE5003012E6FEF502F6F0201BF51EA6EE6
:1003F000BE51E96E040EE926D8B0EA2AEE50030198
:10040000316F2F51EF5C02E12E51315D03E2E00EBE
:10041000306F02D01F0E306F30510201E36F0CD0ED
:10042000FFEC00F03F0E33152E6F200E2E5D020103
:10043000E36F02D00201E36BBF51EA6EBE51E96E79
:10044000EE5003012E6FEF502F6F0201BE51E96E87
:10045000020EE926D8B0EA2AEE5003012E25306FAD
:100460002F51EF22E9063051EF6E0201E3510301F3
:100470002E6F2F6B0201E3AF02D003012F070201A1
:10048000BF51EA6EBE51E96E070EE926D8B0EA2ADE
:10049000EF5003012E03F350306FF450316FEF50E3
:1004A0002F03F350312730510201BC270301315192
:1004B0000201BD23E12BF3D6BC5103012B6F0201D6
:1004C000BD5103012D6F0201FF5103012E6F07E0A3
:1004D0000201BD3503012D332B332E07F8D72B51E5
:1004E000800F0201DB6F12000201E7BB03D0800E18
:1004F000FB6FE78BE7BD05D0B26BB36BB46BB56B2D
:10050000E78DFA6701D01200200ED15D04E1970E4D
:10051000D06101D003D002E3FA6B1200FB5103015A
:100520002B6F18EC01F00201D04BD12BD0510301FD
:100530002B6F0201D15103012C6F2D6B2E6B600EBE
:100540002F6F2B512F27DE0E306F2C513023010ED1
:10055000316F2D513123000E326F2E5132232F5126
:100560000201B26F030130510201B36F0301315137
:100570000201B46F030132510201B56FB451F86E3C
:10058000B351F76EB251F66E0800F550FB6F1200D2
:100590000201EE53D8A4120000EE59F0E950EF51D9
:1005A00003012B6F2C6B2B51E9262C51EA220201FF
:1005B000F051EF6401D002D0828003D0F06701D007
:1005C000829002EE90F0E950EF5103012D6F2E6BF7
:1005D0002D51E9262E51EA220201F051EF6401D09B
:1005E00002D0828203D0F06701D0829202EE97F0AF
:1005F000E950EF5103012F6F306B2F51E926305135
:10060000EA220201F051EF6401D002D0828403D0CB
:10061000F06701D08294F02B170EF06101D0120028
:10062000F06BEF2B070EEF6101D001D0EF6BEF53B2
:1006300016E0EF0517E0020EEF6301D016D0030EAF
:10064000EF6301D015D0040EEF6301D014D0050E76
:10065000EF6301D013D0060EEF63120012D0829E1A
:10066000818212008192818412008194818612001D
:100670008196818812008198818A1200819A828CE9
:100680001200829C828E12002151286F2251296F04
:100690002A6B266B0201B651030128270201B751CC
:1006A000030129230201B85103012A230201B95190
:1006B000030126232851236F2951246F2A51256FC6
:1006C0002551F86E2451F76E2351F66E0800F5504F
:1006D000276F2751286F12001E51EA6E1D51E96ED7
:1006E000030EE926D8B0EA2AEF6626D01E51EA6E3C
:1006F0001D51E96EEE50236F216FEF50226F234B97
:10070000EF2AE9062351EF6E44EC03F02851206FE5
:100710001E51EA6E1D51E96E020EE926D8B0EA2A92
:100720002051EF6E1E51EA6E1D51E96E030EE9264F
:10073000D8B0EA2A080EEF6E1E51EA6E1D51E96E1E
:10074000030EE926D8B0EA2AEF061E51EA6E1D51C3
:10075000E96E020EE926D8B0EA2A010EEF141F6FE7
:100760001E51EA6E1D51E96E020EE926D8B0EA2A42
:10077000D890EF321F51206F1200170E6B14D8B4AF
:100780006DB4FBD712001A6B1B6B1C6B19511C61EB
:1007900019D017511D6F18511E6F6CEC03F02053C8
:1007A0000FE0010E1D6F1E6B1C51FF0B05E0D89072
:1007B0001D371E37FF0FF9D71D511A131E511B137A
:1007C0001C2BE4D71A511D6F1B511E6F12001651BE
:1007D000EA6E1551E96EE92A1751196F1851EF6E3B
:1007E000E9061951EF6E030EE926D8B0EA2A000E89
:1007F000EF6E1200829A8296176B080E17610DD069
:1008000016AF02D0828A01D0829A828682961653CF
:10081000D89016371729176FF0D7829A1200030164
:100820000D91F2BE0D81F29E550EA76EAA0EA76E17
:10083000A6820DB1F28E0DA1F29EA6941200BDEC1F
:1008400003F0A49EA49C6B80BDEC03F0A49EA49C2A
:10085000C00E6F6EBDEC03F0A49EA49C6F6ABDEC4D
:1008600003F0A49EA49C14516F6EBDEC03F0A49EF3
:10087000A49C6B84BDEC03F0A49EA49C1200020116
:1008800002EE62F0E95003011A511C6F1D6B1C51FE
:10089000E9261D51EA22EF501E6F300E1E6301D073
:1008A00030D0640E1E6301D042D0660E1E6301D0AC
:1008B0005FD0690E1E6301D071D06A0E1E6301D035
:1008C0008DD06C0E1E6301D0A4D06D0E1E6301D0BE
:1008D000B6D0740E1E6301D0DDD0760E1E6301D03B
:1008E000EFD0770E1E6301D005D12B0E1E6301D011
:1008F0001BD13D0E1E6301D048D17E0E1E63120037
:100900005AD1010101EE9AF0E9501A0E03011903C0
:10091000F350226FF450236F2251E9262351EA222B
:10092000080EE926D8B0EA2A000EEF6E1200256BF9
:100930001B51246F020102EE42F0E95003011951EC
:10094000226F236B2237233722372337223723376F
:10095000F80E2215E9262351EA22040EE926D8B022
:10096000EA2AE92A2451EF6EE9062551EF6E1200BA
:10097000010101EE9AF0E9501A0E03011903F35038
:10098000226FF450236F2251E9262351EA22100EE0
:10099000E926D8B0EA2A1B51EF6E12001B51256FD1
:1009A000246BD89025372437010101EE9AF0E950E5
:1009B0001A0E03011903F350226FF450236F2251D2
:1009C000E9262351EA22160EE926D8B0EA2AE92AB6
:1009D0002451EF6EE9062551EF6E1200010101EE80
:1009E0009AF0E9501A0E03011903F350226FF450E4
:1009F000236F2251E9262351EA22090EE926D8B0B5
:100A0000EA2AE92A1B51246FEF6AE9062451EF6EA6
:100A10001200010101EE9AF0E9501A0E03011903C8
:100A2000F350226FF450236F2251E9262351EA221A
:100A30000D0EE926D8B0EA2A1B51EF6E12001B51A9
:100A4000256F246B2537243725372437253724375E
:100A5000253724372537243725372437C00E251767
:100A6000010101EE9AF0E9501A0E03011903F35047
:100A7000226FF450236F2251E9262351EA22110EEE
:100A8000E926D8B0EA2AE92A2451EF6EE906255171
:100A9000EF6E1200010101EE9AF0E9501A0E030107
:100AA0001903F350226FF450236F2251E92623518A
:100AB000EA220B0EE926D8B0EA2A1B51EF6E12008B
:100AC000020102EE42F0E95003011951226F236B3B
:100AD000223723372237233722372337F80E2215C0
:100AE000E9262351EA22070EE926D8B0EA2A1B514B
:100AF000EF6E1200020102EE42F0E95003011951BB
:100B0000226F236B223723372237233722372337AD
:100B1000F80E2215E9262351EA22060EE926D8B05E
:100B2000EA2A1B51EF6E1200010101EE9AF0E95022
:100B30001A0E03011903F350246FF450256F24514A
:100B4000E9262551EA22060EE926D8B0EA2A266BC4
:100B5000EF501B25276FD8B0262B300E275F0101E1
:100B600001EE9AF0E9501A0E03011903F350226FB7
:100B7000F450236F2251E9262351EA220C0EE92674
:100B8000D8B0EA2A2751EF6E1200010101EE9AF067
:100B9000E9501A0E03011903F350226FF450236F2A
:100BA0002251E9262351EA220C0EE926D8B0EA2A7E
:100BB0001B51EF6E1200010101EE9AF0E9501A0E7E
:100BC00003011903F3501F6FF450206F1F51E926E2
:100BD0002051EA22130EE926D8B0EA2A1B390F0B5E
:100BE000216F2151EF62216315D0010101EE9AF0CE
:100BF000E9501A0E03011903F350226FF450236FCA
:100C00002251E9262351EA22150EE926D8B0EA2A14
:100C1000000EEF6E1B390F0B246F010101EE9AF0ED
:100C2000E9501A0E03011903F350226FF450236F99
:100C30002251E9262351EA22130EE926D8B0EA2AE6
:100C40002451EF6E0F0E1B15246F010101EE9AF077
:100C5000E9501A0E03011903F350226FF450236F69
:100C60002251E9262351EA22140EE926D8B0EA2AB5
:100C70002451EF6E1200010101EE08F0E95003016A
:100C80001951236F246BD890233724372351E92639
:100C90002451EA221A51216F226BD8902137223732
:100CA000EE502127EF50222344EC03F028511F6F10
:100CB0001C51EA6E1B51E96E1D6B1E6B1D51E9261E
:100CC0001E51EA221F51EF6E010101EE08F0E950BA
:100CD00003011951236F246BD890233724372351F4
:100CE000E9262451EA221A51216F226BD89021372C
:100CF0002237EE502127EF502223212BD8B4222B6C
:100D000044EC03F028511F6F1C51EA6E1B51E96E31
:100D1000010E1D6F1E6B1D51E9261E51EA221F5147
:100D2000EF6E12000F51186F196B050E1803F35078
:100D3000156FF450166F050E1903F3501627105156
:100D40001527D8B0162B1551186F1651196F1A6B3D
:100D50001B6B600E1C6F18511C27B30E1D6F1951B1
:100D60001D23010E206F1A512023000E146F1B51FA
:100D700014231C51116F1D51126F2051136F135109
:100D8000F86E1251F76E1151F66E0800F550176F9C
:100D90001751186F1200070E1661120002017051F0
:100DA00003011E6F080E176104D017511F6F1D6BD2
:100DB00003D0070E1F6F1D6B06EC00F0206F00EED6
:100DC00059F0E95016511A6F1B6B1A51E9261B5145
:100DD000EA222051EF6E0201785103011E6F080EC6
:100DE000186104D018511F6F1D6B03D0070E1F6FC1
:100DF0001D6B06EC00F0206F020102EE90F0E9504E
:100E0000030116511A6F1B6B1A51E9261B51EA2276
:100E10002051EF6E0201805103011E6F080E19610F
:100E200004D019511F6F1D6B03D0070E1F6F1D6B70
:100E300006EC00F0206F020102EE97F0E95003018A
:100E400016511A6F1B6B1A51E9261B51EA222051C9
:100E5000EF6E12008280828482820EAD02D0818287
:100E600001D081920EAB02D0818401D081940EA971
:100E700002D0818601D081960EA702D0818801D050
:100E800081980EA502D0818A01D0819A0EA302D04A
:100E9000828C01D0829C0EA102D0828E01D0829ED3
:100EA0000D53D8B412000D0508E0020E0D6301D0F9
:100EB00006D0030E0D63120004D0829012008292BD
:100EC000120082941200030E0301166F0F0E156FAD
:100ED000176B186BE7EC03F00E6B146B0201FC51FF
:100EE000100F0301136FD8B0142B13510E6114515E
:100EF00021E0030E186F0F0E176F0D0E196FC3EC64
:100F000003F0010101EE08F0E95003010E51156FE5
:100F1000166BD890153716371551E9261651EA2267
:100F2000E92A1D51176F1E51EF6EE9061751EF6E3A
:100F30000E2BD3D7020E166FAA0E156F01010851A2
:100F40000301176F010109510301186FE7EC03F06A
:100F500012000551F66E0651F76E0751F86E400EFD
:100F60000B6F0B510C6F0B070C530AE00A51EA6E22
:100F70000951E96E094B0A2BEF50F56E0D00F1D7C0
:100F80000A00840EA66E0FEC04F012000551F66EF6
:100F90000651F76E0751F86E400E0B6F0B510C6F38
:100FA0000B070C530DE009000A51EA6E0951E96E76
:100FB000094B0A2BEF50F562EF62F0D70D6B120070
:100FC000010E0D6F12000551F66E0651F76E0751B6
:100FD000F86E940EA66E0FEC04F01200000E1415BD
:100FE000176F1551FF0B166FFAEC03F01451166FC3
:100FF000FAEC03F012008096000E1415176F1551CD
:10100000FF0B166FFAEC03F01451166FFAEC03F0B5
:10101000808612000201DC6BDD6BDE6B010ED96F86
:10102000DF6B496B0101A26B0201516B0101BC6BCB
:101030000201596B0101D66B0201616B0101F06B7A
:1010400063EC07F01200A49EA49CBDEC03F06B803F
:10105000BDEC03F0A49EA49C6F68BDEC03F0A49EBD
:10106000A49C6B82BDEC03F0A49EA49C6B84BDEC9D
:1010700003F01200BDEC03F0A49EA49C6B84BDECB5
:1010800003F0A49EA49C6D9E130E6E6E1200BDEC28
:1010900003F0A49EA49C6B80BDEC03F0A49EA49CD2
:1010A000080E6F6EBDEC03F06D8E050E6E6EA49E85
:1010B000A49C6B82BDEC03F0A49EA49CC00E6F6E3A
:1010C000BDEC03F0A49EA49C1200838E640E030169
:1010D000146F90EC00F0136BFF0E13610FD013A18F
:1010E00003D0B20E146F02D04E0E146F1FEC04F03A
:1010F0000A0E146FD4EC00F0132BEED7839E12006F
:101100000E054CE0020E0E6301D058D0030E0E63A4
:1011100001D064D0040E0E6301D071D0050E0E63B1
:1011200001D07ED0060E0E6301D08AD0070E0E636A
:1011300001D096D0080E0E6301D0A2D0090E0E6326
:1011400001D0AFD00A0E0E6301D0BCD00B0E0E63DF
:1011500001D0C8D00C0E0E6301D0D5D00D0E0E6399
:1011600001D0E2D00E0E0E6301D0EFD00F0E0E6351
:1011700001D0FCD0100E0E6301D008D1110E0E6309
:1011800001D014D1120E0E6301D021D1130E0E63C3
:1011900001D02DD1140E0E634CD13AD1E00E0201D4
:1011A000B66FDD0EB76F010EB86FB96B020EFC6F34
:1011B000FD6F5D0EFE6F070EFF6F1200600E0201E5
:1011C000B66FDD0EB76F010EB86FB96B010EFC6F15
:1011D000FD6F5D0EFE6F070EFF6F1200600E0201C5
:1011E000B66FDA0EB76F010EB86FB96B1D0EFC6FDC
:1011F000050EFD6F5D0EFE6F070EFF6F1200200ED5
:101200000201B66FD80EB76F010EB86FB96B0A0E38
:10121000FC6F080EFD6F5D0EFE6F080EFF6F120073
:10122000A00E0201B66FD70EB76F010EB86FB96B83
:10123000010EFC6FFD6F5D0EFE6F070EFF6F12005B
:10124000200E0201B66FD70EB76F010EB86FB96BE3
:10125000010EFC6FFD6F5D0EFE6F070EFF6F12003B
:10126000E00E0201B66FD40EB76F010EB86FB96B06
:10127000100EFC6FFD6F670EFE6F080EFF6F120001
:10128000600E0201B66FD10EB76F010EB86FB96B69
:101290001D0EFC6F0A0EFD6F5F0EFE6F080EFF6FD6
:1012A0001200200E0201B66FC90EB76F010EB86FA3
:1012B000B96B390EFC6F370EFD6F5D0EFE6F080EB9
:1012C000FF6F1200A00E0201B66FC80EB76F010EBD
:1012D000B86FB96B020EFC6FFD6F5D0EFE6F070EEF
:1012E000FF6F1200E00E0201B66FC60EB76F010E5F
:1012F000B86FB96B080EFC6F0A0EFD6F5D0EFE6FC6
:10130000070EFF6F1200E00E0201B66FC40EB76F3A
:10131000010EB86FB96B0D0EFC6F0A0EFD6F5D0EFE
:10132000FE6F070EFF6F1200E00E0201B66FC10ED6
:10133000B76F010EB86FB96B1B0EFC6F0A0EFD6F15
:101340005D0EFE6F070EFF6F1200200E0201B66FDA
:10135000C10EB76F010EB86FB96B020EFC6F010EB4
:10136000FD6F5D0EFE6F070EFF6F1200A00E0201F3
:10137000B66FC00EB76F010EB86FB96B010EFC6F80
:10138000FD6F5D0EFE6F060EFF6F1200200E020154
:10139000B66FC00EB76F010EB86FB96B010EFC6F60
:1013A000FD6F5D0EFE6F060EFF6F1200600E0201F4
:1013B000B66FBD0EB76F010EB86FB96B1A0EFC6F2A
:1013C000080EFD6F5D0EFE6F070EFF6F1200600EC0
:1013D0000201B66FBC0EB76F010EB86FB96B040E89
:1013E000FC6FFD6F5F0EFE6F070EFF6F1200E00EC9
:1013F0000201B66FBB0EB76F010EB86FB96B020E6C
:10140000FC6F010EFD6F5D0EFE6F070EFF6F120089
:10141000600E0201B66FBB0EB76F010EB86FB96BED
:10142000020EFC6F010EFD6F5D0EFE6F070EFF6F6B
:101430001200600E0201B66FBB0EB76F010EB86FDF
:10144000B96B020EFC6F010EFD6F5D0EFE6F070E95
:10145000FF6F12000201D953D8B4CCD1DD5302E0A2
:10146000DD07C8D1040EDD6FDE679FD0D953D8B435
:101470009CD0DF51FD6501D002D0D96B96D003011D
:101480000D6B040E0D618FD0010E106F9A0E156F4B
:101490001A0E0D03F3500F6FF450146F15510F27F0
:1014A00014511023020E186FAA0E176F010E196F38
:1014B000C3EC03F01D51116F020E186FAA0E176FC7
:1014C000060E196FC3EC03F01D51136F1051EA6E35
:1014D0000F51E96E040EE926D8B0EA2A1351EF6ED7
:1014E00011530FE0020E186FAA0E176F040E196F3A
:1014F000C3EC03F01D51126F12A704D0F00E1213AB
:1015000001D0126B1051EA6E0F51E96E050EE926FB
:10151000D8B0EA2A1251EF6E1051EA6E0F51E96EFF
:10152000040EE926D8B0EA2AEF523BE0010E166F0E
:101530009A0E156F1A0E0D03F350136FF450146FBB
:101540001351152714511623010101EE08F0E9503B
:1015500003011A6FEA501B6F1051EA6E0F51E96ECA
:10156000040EE926D8B0EA2A146BEF50100F196F59
:10157000D8B0142B010E195D136F19590108145FAF
:10158000D8901337143713511A2714511B231A51AB
:10159000E96E1B51EA6EEE50176FEF50186FE7ECD3
:1015A00003F00D2B6ED70201DF2BD953D8B422D113
:1015B00003010D6B040E0D6119D1010E156F9A0E0A
:1015C000136F1A0E0D03F350146FF450126F135172
:1015D00014271251152314510F6F1551106F10510C
:1015E000EA6E0F51E96E040EE926D8B0EA2AEF52EE
:1015F000D8B4FAD00F51176F1051186F030E196F2E
:10160000C3EC03F01D51156F116B126B136B146B50
:1016100015A10AD00F51176F1051186F070E196FCF
:10162000C3EC03F01D51116F15A30AD00F51176FB2
:101630001051186F040E196FC3EC03F01D51126F97
:1016400015A514D00F51176F1051186F040E196F94
:10165000C3EC03F01D51136F0F51176F1051186F2A
:10166000080E196FC3EC03F01D51146F115321E0E4
:101670001051EA6E0F51E96E050EE926D8B0EA2A3C
:10168000EF501125166F1051EA6E0F51E96E060EDC
:10169000E926D8B0EA2A1651EF6E12670AD0105127
:1016A000EA6E0F51E96E070EE926D8B0EA2AEF502C
:1016B000126F1253D8B48ED0020E126303D0050EEF
:1016C0000201BB6F0301120513E1050E0201BA6F9F
:1016D00003011051EA6E0F51E96E040EE926D8B0ED
:1016E000EA2A040EEF6204D0030E0201BB6FBA6F48
:1016F000070E0301126304D01E0E0201BB6FBA6F06
:1017000003011051EA6E0F51E96E070EE926D8B0B9
:10171000EA2A1251EF6E1051EA6E0F51E96E080E6F
:10172000E926D8B0EA2A1251EF6E1051EA6E0F5135
:10173000E96E090EE926D8B0EA2AE92A000E166FEA
:10174000EF6AE9061651EF6E1051EA6E0F51E96E1D
:101750000B0EE926D8B0EA2A000EEF6E1051EA6EA1
:101760000F51E96E0E0EE926D8B0EA2AE92A000EDA
:10177000166FEF6AE9061651EF6E1051EA6E0F51BF
:10178000E96E0D0EE926D8B0EA2A000EEF6E105170
:10179000EA6E0F51E96E100EE926D8B0EA2A000E63
:1017A000EF6E1051EA6E0F51E96E110EE926D8B0B6
:1017B000EA2AE92A000E166FEF6AE9061651EF6E63
:1017C0001051EA6E0F51E96E130EE926D8B0EA2ADD
:1017D000000EEF6E135308E00D51196F13511A6F7D
:1017E00014511B6F3FEC04F00D2BE4D60201DE2BED
:1017F0001F0EDE1703010D6B040E0D6188D2010E62
:101800001B6F9A0E196F1A0E0D03F3501A6FF450D6
:10181000186F19511A2718511B231A510F6F1B519A
:10182000106F1051EA6E0F51E96E080EE926D8B01C
:10183000EA2AEF523CE01051EA6E0F51E96E0B0EAE
:10184000E926D8B0EA2AEF6632D01051EA6E0F517D
:10185000E96E080EE926D8B0EA2AEF50196F105148
:10186000EA6E0F51E96E090EE926D8B0EA2AEE5069
:101870001A6F030E1C6F170E1B6F3BEC06F0105116
:10188000EA6E0F51E96E090EE926D8B0EA2AEE5049
:10189000196F194BEF2AE9061951EF6E0D51196FA7
:1018A00017511A6F18511B6F3FEC04F0BAD7105143
:1018B000EA6E0F51E96E0B0EE926D8B0EA2AEF5214
:1018C00009E01051EA6E0F51E96E0B0EE926D8B00F
:1018D000EA2AEF061051EA6E0F51E96E160EE9265C
:1018E000D8B0EA2AEE50176F175303E1EF52D8B47D
:1018F000B8D01051EA6E0F51E96E180EE926D8B033
:10190000EA2AEE50156FEF50166F000100EE60F0FE
:10191000E95003011B6FEA501C6F1051EA6E0F5122
:10192000E96E0C0EE926D8B0EA2AEF50196F1A6B4F
:10193000D89019371A3719511B271A511C231B51DC
:10194000E96E1C51EA6EEE50176F1551175F165174
:10195000EF58186F000E1765186701D02ED018BF0A
:101960002CD01051EA6E0F51E96E160EE926D8B050
:10197000EA2AEE501A6FEF50800A196F1851800A48
:10198000195D02E117511A5D53E2010101EE9AF06F
:10199000E9501A0E03010D03F350196FF4501A6F3A
:1019A0001951E9261A51EA22160EE926D8B0EA2A78
:1019B000EE50176FEF50186F3BD018AF39D0105161
:1019C000EA6E0F51E96E160EE926D8B0EA2AEE50FB
:1019D000196F191FEF1C1A6F192BD8B41A2B185135
:1019E000800A1B6F1A51800A1B5D02E11951175DB5
:1019F0001FE2010101EE9AF0E9501A0E03010D03F6
:101A0000F3501B6FF4501C6F1B51E9261C51EA2246
:101A1000160EE926D8B0EA2AEE501D6F1D1FEF1CE6
:101A20001E6F1D2BD8B41E2B1D51176F1E51186F22
:101A3000175115271851196F165119231951166F7F
:101A40001051EA6E0F51E96E180EE926D8B0EA2A55
:101A5000E92A1551196F1651EF6EE9061951EF6E0B
:101A600029D0000100EE60F0E9500301196FEA503F
:101A70001A6F1051EA6E0F51E96E0C0EE926D8B0BC
:101A8000EA2AEF50176F186BD8901737183717518D
:101A9000192718511A231951E96E1A51EA6EEE509E
:101AA0001B6FEF501C6FD8901B371C371B51156FE5
:101AB0001C51166F05501E6F1051EA6E0F51E96EE2
:101AC000150EE926D8B0EA2A3F0EEF141F6F1A6BE5
:101AD00006EC00F01B6F1051EA6E0F51E96E130E09
:101AE000E926D8B0EA2A1B51EF02F350206FF450D8
:101AF0001C6F246F1C35243320331C3524332033D2
:101B00001051EA6E0F51E96E0E0EE926D8B0EA2A9E
:101B1000EE501525256FEF50226F165122232051CC
:101B2000252722512423020102EE42F0E95003014D
:101B30000D51176F186B17371837173718371737B6
:101B40001837F80E1715E9261851EA22E92A245108
:101B5000EF6EE9062551EF6E1051EA6E0F51E96EF6
:101B60000D0EE926D8B0EA2AEF50176F1051EA6E31
:101B70000F51E96E0E0EE926D8B0EA2AEE5017256D
:101B8000186FD8B0EF2A17BFEF06E9061851EF6EAD
:101B90001051EA6E0F51E96E100EE926D8B0EA2A0C
:101BA000EF50196F020102EE42F0E95003010D51AE
:101BB000176F186B17371837173718371737183745
:101BC000F80E1715E9261851EA22070EE926D8B0B3
:101BD000EA2A126B1951EF24116FD8B0122B19BFDA
:101BE000120712AF02D0116B126BFF0E1165126754
:101BF00001D004D012BF02D01169126B1151196FBC
:101C0000020102EE42F0E95003010D51176F186B0B
:101C1000173718371737183717371837F80E1715BB
:101C2000E9261851EA22070EE926D8B0EA2A195106
:101C3000EF6E1051EA6E0F51E96E110EE926D8B021
:101C4000EA2AEE50136FEF50146F020102EE42F0D9
:101C5000E95003010D51176F186B173718371737F5
:101C6000183717371837F80E1715E9261851EA22D2
:101C7000040EE926D8B0EA2AEE501327EF501423B9
:101C80001451E00802E11351000803E2136B200E27
:101C9000146F200E145D02E1000E135D03E2136B5E
:101CA000E00E146F020102EE42F0E95003010D5103
:101CB000176F186B17371837173718371737183744
:101CC000F80E1715E9261851EA22040EE926D8B0B5
:101CD000EA2AE92A1351196F1451EF6EE9061951D6
:101CE000EF6E1051EA6E0F51E96E140EE926D8B06E
:101CF000EA2AEF50176F1051EA6E0F51E96E150E78
:101D0000E926D8B0EA2A1751EF260D2B75D5819216
:101D1000819481968198819A829C829E828482801D
:101D200082820E6B0201BA5303E0BA0703010E81EF
:101D30000201BB5303E0BB0703010E8303010E0541
:101D400008E0020E0E6301D008D0030E0E631200ED
:101D500009D082908182828E12008292818681884F
:101D6000818A120082948184828C120005510201C2
:101D7000046F120005510201036F12000301056B8D
:101D8000AC0E066F010E076F086BE3EC07F0020E56
:101D9000056FE0EC00F0056BAC0E066F010E076FEF
:101DA000086B020E0A6F020E096FA9EC07F0020E13
:101DB000056FE0EC00F0056BAC0E066F010E076FCF
:101DC000086B020E0A6F020E096FC6EC07F00D5386
:101DD00007E0020E0D6F080E0E6F2AEC07F006D01A
:101DE000010E0D6F080E0E6F2AEC07F00A0E056F3C
:101DF000E0EC00F0120012AD0AD0166B1351176F11
:101E00001451186F1551196FCBEC06F006D0166BF4
:101E1000176B186B196BCBEC06F012AB0BD0010EE5
:101E2000166F1351176F1451186F1551196FCBECB2
:101E300006F007D0010E166F176B186B196BCBEC01
:101E400006F012A90BD0020E166F1351176F145122
:101E5000186F1551196FCBEC06F007D0020E166FF4
:101E6000176B186B196BCBEC06F012A70BD0030E97
:101E7000166F1351176F1451186F1551196FCBEC62
:101E800006F007D0030E166F176B186B196BCBECAF
:101E900006F012A50BD0040E166F1351176F1451D4
:101EA000186F1551196FCBEC06F007D0040E166FA2
:101EB000176B186B196BCBEC06F012A30BD0050E49
:101EC000166F1351176F1451186F1551196FCBEC12
:101ED00006F007D0050E166F176B186B196BCBEC5D
:101EE00006F012A10BD0060E166F1351176F145186
:101EF000186F1551196FCBEC06F01200060E166F15
:101F0000176B186B196BCBEC06F012000301126B08
:101F1000070E1261120000EE59F0E9501251136FD2
:101F2000146B1351E9261451EA22000EEF6E0201E0
:101F300002EE90F0E95003011251136F146B13512C
:101F4000E9261451EA22000EEF6E020102EE97F02C
:101F5000E95003011251136F146B1351E926145108
:101F6000EA22000EEF6E122BD3D70201E7B502D0A2
:101F7000EA6BE785E7B702D0EB6BE787E7B902D0FA
:101F8000EC6BE7892B0EEB6101D009D0EB6BCE4BEC
:101F9000CF2BEA2B030EEA6502D0010EEA6F040E86
:101FA0000301086305D00201EA5103010D6F02D05D
:101FB00008510D6F0201E95103011E6F0201EB513F
:101FC00003011F6F126B06EC00F00F6F0201EC5162
:101FD0000301106F92EC06F018510E6F2AEC07F017
:101FE000280E146FD4EC00F0040E086305D0020133
:101FF000EA5103010D6F02D008510D6F0E6B2AECF0
:1020000007F00201EC2B050EEC6101D01200EC6B25
:10201000EB2B500E0301146FD4EC00F012000551AD
:10202000F66E0651F76E0751F86E400E0B6F0B51AE
:102030000C6F0B070C53D8B4120009000A51EA6E5A
:102040000951E96E094B0A2BF550EF6EF0D79E9CB3
:10205000C282C2B2FED7C4500301166F176B186B51
:102060001651196F1851166F1951176FC350161367
:102070009E9C1651186F1751196F12000301156BB2
:10208000829A8296146B080E14610DD01553D89065
:10209000153782A802D0158101D0159182868296CB
:1020A0001429146FF0D71551166F1200080E146F13
:1020B000820E156FFBEC07F09F0E146F800E156FEC
:1020C000FBEC07F0280E146F820E156FFBEC07F087
:1020D000809682A8FED7AA0E146FB80E156FEEEC8C
:1020E00007F082A8FED72D0E146FB80E156FEEEC18
:1020F00007F082A8FED7D40E146FB80E156FEEEC61
:1021000007F082A8FED712510009146FB80E156FA0
:10211000EEEC07F0136B1251136116D082A8FED7B4
:102120001151EA6E1051E96E1351166F176B16516B
:10213000E9261751EA22EF500009146FB80E156F07
:10214000EEEC07F0132BE7D782A8FED7146BB80E7E
:10215000156FEEEC07F082A8FED78086880E146F0C
:10216000820E156FFBEC07F05F0E146F800E156F7B
:10217000FBEC07F01200830E0301146FCA0E156FFB
:10218000FBEC07F012008680010E0301146F90EC47
:1021900000F0330EAB6E200EA86E900E9C6E8696ED
:1021A00012000201D96B03010D510E6F80EC08F093
:1021B0000AEC08F0838E0A0E146FD4EC00F023ECC6
:1021C00008F0050E146FD4EC00F023EC08F0050EB7
:1021D000146FD4EC00F047EC08F012000201D9674C
:1021E00001D01200DC6701D01200DC6B2AEC0AF08F
:1021F0000201D953D8A41200496B0101A26B02015C
:10220000516B0101BC6B0201596B0101D66B0201DC
:10221000616B0101F06B3AEC08F0050E0301146FDD
:10222000D4EC00F0839E0A0E146FD4EC00F023EC83
:1022300008F0050E146FD4EC00F023EC08F0050E46
:10224000146FD4EC00F01200A49EA49CBDEC03F02B
:102250006B80BDEC03F0A49EA49CC00E6F6EBDEC21
:1022600003F0A49EA49C800E6F6EBDEC03F0A49EB0
:10227000A49C6B84BDEC03F012000201D06BD16B07
:10228000838E47EC08F0010EFA6FFA53FEE13AEC48
:1022900008F0839E12000E51EA6E0D51E96E106B2C
:1022A000116B1051E9261151EA22EF50126F1205FD
:1022B000D8B465EC08F012000D510201886F0301DB
:1022C0000E510201896F03010F5102018A6F020E44
:1022D0000301116F880E106F030E126F56EC10F091
:1022E000BBEC10F0120085B616D085B22BD0010ED3
:1022F0000301056FB6EC0EF065EC08F00A0E146FE2
:1023000090EC00F085B41ED0020E056FB6EC0EF016
:1023100065EC08F017D085B20CD0010E0301056FF3
:10232000BAEC0EF065EC08F00A0E146F90EC00F0B9
:1023300009D085B41200020E0301056FBAEC0EF04D
:1023400065EC08F0BEEC0EF012000301056BAC0E5C
:10235000066F010E076F086B020E0A6F020E096FFF
:102360000FEC10F01200020105510301106F120072
:10237000020104510301076F12000201035103011E
:10238000086F1200020102510301056F1200F29E54
:10239000720ED36E010E0301146F90EC00F09B8C53
:1023A000F30E926E0C0E806EC10E936E816A100E4B
:1023B000946E070E826E760E956E090E836E966889
:1023C000846A0E0E976E856EF60E986E010E866EFE
:1023D000C26A2E0EC16EC18EC088DC0EC16EC2688C
:1023E000C098C280C18CC282C2B2FED7C19C9E9CE2
:1023F0006C6A130E6E6E080E6C6E6B6A6D6AA49E2C
:10240000A49C6C8A420ED56E850ED66ED58EF28A4D
:1024100012000E510201F36F86EC0FF00201F96B0E
:10242000000EF86B010EED6F03010D0513E0020EB7
:102430000D6301D01BD0030E0D6301D05ED0040EDE
:102440000D6301D017D0050E0D6301D04ED00D5392
:1024500050E053D0166B040E176F186B196BCBEC52
:1024600006F0010E0201F16FF26B47D0020E02017D
:10247000F76F43D0166B176B186B060E196FCBEC0A
:1024800006F0010E166F176B020E186F040E196F0F
:10249000CBEC06F0020E166F176B040E186F020ECF
:1024A000196FCBEC06F0030E166F176B060E186F44
:1024B000196BCBEC06F0040E166F020E176F040EAC
:1024C000186F196BCBEC06F0050E166F040E176F24
:1024D000020E186F196BCBEC06F0060E166F176F15
:1024E000186B196BCBEC06F008D00201F56BF66B9C
:1024F00004D086EC0FF00201ED6B03010D510201D7
:10250000F46F12000201ED6701D0120003010D51BA
:102510000201F827140EF86101D004D0F92B140E33
:10252000F85FF8D7F351F96101D01200F96BF405A7
:1025300014E0020EF46301D02FD0030EF46301D037
:102540001200040EF46301D032D0050EF46301D002
:10255000A2D0F453D8B454D11200F2510301166F33
:10256000176B186B196BCBEC06F00201F10506E155
:10257000F22B060EF26306D0F16B04D0F20702E1F3
:10258000010EF16FF2510301166F040E176F186BF5
:10259000196BCBEC06F01200F707D8A41200030168
:1025A000126B136B146B156BFBEC0EF01200595091
:1025B00003010E6F0201905103010F6F0201975149
:1025C0000301106F116B060E11615BD000EE59F024
:1025D000E9501151146F156B142BD8B4152B1451ED
:1025E000E9261551EA22EF50166F00EE59F0E95036
:1025F0001151126F136B1251E9261351EA22165131
:10260000EF6E020102EE90F0E95003011151146FD8
:10261000156B142BD8B4152B1451E9261551EA2249
:10262000EF50166F020102EE90F0E95003011151D4
:10263000126F136B1251E9261351EA221651EF6EF5
:10264000020102EE97F0E95003011151146F156B6E
:10265000142BD8B4152B1451E9261551EA22EF504A
:10266000166F020102EE97F0E95003011151126F4B
:10267000136B1251E9261351EA221651EF6E112BFA
:10268000A2D70E515F6E0F510201966F03011051D8
:1026900002019D6F1200F607F5531AE0F50527E0D9
:1026A000020EF56301D035D0030EF56301D043D09F
:1026B000040EF56301D051D0050EF56301D05FD053
:1026C000060EF56301D074D0070EF563120088D0B2
:1026D000060E0301166F010E176F186B196BCBEC0A
:1026E00006F0320E0201F66F010EF56F1200F6537E
:1026F000D8A41200050E0301166F010E176F186B98
:10270000196BCBEC06F0320E0201F66F020EF56F7C
:102710001200F653D8A41200040E0301166F010E26
:10272000176F186B196BCBEC06F0320E0201F66FC7
:10273000030EF56F1200F653D8A41200030E030126
:10274000166F010E176F186B196BCBEC06F0820E2B
:102750000201F66F040EF56F1200F653D8A41200B2
:10276000020E0301166F040E176F186F196FCBEC72
:1027700006F0030E0201F66F050EF56F1200F65318
:10278000D8A41200020E0301166F176B186B196B99
:10279000CBEC06F0010E166F040E176F186F196F51
:1027A000CBEC06F0030E0201F66F060EF56F120079
:1027B000F653D8A41200010E0301166F176B186BA5
:1027C000196BCBEC06F0166B040E176F186F196FB0
:1027D000CBEC06F0030E0201F66F070EF56F120048
:1027E000F653D8A412000301166B176B186B196B04
:1027F000CBEC06F0120E0201F66F040EF56F12001C
:1028000086EC0FF00201ED6B12000201CE6BCF6B74
:10281000030107510201CF5D04E1030106510201EA
:10282000CE5DD8B0120003010551086FB5EC0FF072
:10283000EFD70551001B0651011B0751021B032B4B
:102840000251001B0351001B00510125016F015172
:10285000086FD890083102270051021B1200C26A8B
:102860002E0EC16EC18EC088DC0EC16EC268C098CB
:10287000C280320E0301146FD4EC00F0C18CC2820E
:10288000C2B2FED7C19C9E9C12000201E651030118
:102890000D6F12000201E0BF02D0E86BE08FE7B1DC
:1028A00005D0C66BC76BCA6BCB6BE781E7B305D0AE
:1028B000C86BC96BCC6BCD6BE78303010E51020172
:1028C000C62703010F510201C723020E03010D6346
:1028D00007D080840201E86B010E0301106F120023
:1028E0000D0507E180940201C66BC76B010EE86F0E
:1028F000E66B0201E8531AE0E8051BE0020EE8630C
:1029000001D01ED0030EE86301D03CD0040EE86372
:1029100001D05AD0050EE86301D078D00A0EE863E2
:1029200001D0D3D0140EE8630ED106D10301106B91
:10293000120086EC0FF08094020E0201E86F03D1C2
:102940001B0EC75D02E1580EC65D04E2020E0301D4
:10295000106F120027EC10F018510201C86F03012C
:1029600019510201C96F27EC10F07F0E1815126F74
:10297000030E136F146B156BFBEC0EF0030E0201CC
:10298000E86FE1D01F0EC75D02E1400EC65D04E2B4
:10299000020E0301106F120027EC10F01851020113
:1029A000C827030119510201C92327EC10F07F0E3B
:1029B0001815126F030E136F146B156BFBEC0EF0F2
:1029C000040E0201E86FBFD0230EC75D02E1280E9E
:1029D000C65D04E2020E0301106F120027EC10F036
:1029E00018510201C827030119510201C92327EC1C
:1029F00010F07F0E1815126F030E136F146B156B0A
:102A0000FBEC0EF0050E0201E86F9DD0270EC75DAE
:102A100002E1100EC65D04E2020E0301106F120007
:102A200027EC10F018510201C827030119510201C7
:102A3000C92327EC10F07F0E1815126F030E136FC9
:102A4000146B156BFBEC0EF0D8900201C933C83340
:102A5000D890C933C833C851C26FC951C36F040E6F
:102A6000C25DC06FC2590408C35DC16F020EC25D72
:102A7000C46FC2590208C35DC56F0301166B176BA3
:102A8000040E186F196BCBEC06F0010E166F176B66
:102A9000040E186F196BCBEC06F0020E166F176B55
:102AA000040E186F196BCBEC06F0030E166F176B44
:102AB000040E186F196BCBEC06F00A0E0201E86FDA
:102AC000C651CA6FC751CB6F3ED0C751420802E111
:102AD000C651680803E2140EE86F35D027EC10F0F9
:102AE00018510201CC6F030119510201CD6F7F0E05
:102AF000CC150301126F136B030E146F156BFBECF7
:102B00000EF00201C151CD5D02E1C051CC5D08E281
:102B1000020EE66105D0020EE66F140EE86F13D0C8
:102B2000C551CD5D02E1C451CC5D0DE2010EE661FF
:102B30000AD0010EE66F07D08084E86B86EC0FF0B8
:102B4000010E106F1200020E0301106F120002013D
:102B5000E0BB02D0E46BE08BE0BD02D0E56BE08D22
:102B6000809682A86BD080868390E4532CE03EEC64
:102B700010F00E51EA6E0D51E96E0201E5510301AC
:102B8000126F136B1251E9261351EA221651EF6EA0
:102B90000201E52BE551E46501D04BD0810E030124
:102BA000146FCA0E156FFBEC07F083801051EA6EAC
:102BB0000F51E96E0201E551EF6EE56BE46B020E19
:102BC0000301126F12003EEC10F01651116F000E4F
:102BD000116508D0140E116105D011510201E46F86
:102BE000E56B27D08380080E146F820E156FFBEC07
:102BF00007F0810E146FCA0E156FFBEC07F01F0E65
:102C0000146F800E156FFBEC07F05F0E146F800ED3
:102C1000156FFBEC07F0880E146F820E156FFBEC3E
:102C200007F0830E146FCA0E156FFBEC07F0126BE2
:102C300012008380010E0301126F120080860301CF
:102C4000126B12008396050E0301146F90EC00F0D6
:102C50008386050E146F90EC00F0810E146FCA0E7F
:102C6000156FFBEC07F0830E146FCA0E156FFBECAB
:102C700007F01F0E146F800E156FFBEC07F0D00EDF
:102C8000146FA70E156FFBEC07F0080E146F820E81
:102C9000156FFBEC07F0A10E146F940E156FFBEC93
:102CA00007F0600E146F980E156FFBEC07F0280EFE
:102CB000146F820E156FFBEC07F0040E146F90EC8E
:102CC00000F0880E146F820E156FFBEC07F05F0E9C
:102CD000146F800E156FFBEC07F0810E146FCA0E97
:102CE000156FFBEC07F0830E146FCA0E156FFBEC2B
:102CF00007F083801200C7EC11F0A5EC11F073EC23
:102D000011F024EC11F02FEC14F022EC16F0C3ECCF
:102D100010F086EC0FF0010E056FECEC00F0010EE8
:102D20000D6FBDEC11F0400E08110E6F2AEC07F08C
:102D3000640E146FD4EC00F0010E0D6F0E6B2AECD4
:102D400007F0010E056FECEC00F0010E0D6FB8EC12
:102D500011F0400E07110E6F2AEC07F0640E146F8D
:102D6000D4EC00F0010E0D6F0E6B2AEC07F0010E93
:102D7000056FECEC00F0C2EC11F005510201D56FCB
:102D8000D5AF04D0010E03010D6F03D0020E030175
:102D90000D6F7F0E0201D51503010E6F2AEC07F0AF
:102DA000030E056FECEC00F00D6B0E6B2AEC07F0D8
:102DB000BDEC11F00829056F0201D5510301066F22
:102DC000030E076F19EC14F0040E056F280E066F42
:102DD000076B05EC14F0F28E3DEC11F0020E0301CE
:102DE000056FECEC00F0020E0201D66F010E03013C
:102DF0000D6F0E6B0F6B4AEC14F0F29A0201D45176
:102E0000D26FD46BF28AD25103010D6F0E6B0F6B30
:102E1000106B0D5102019E2703010E5102019F23E9
:102E200003010F510201A023030110510201A1234C
:102E3000D6510301046F0201D65304E0020ED6639B
:102E4000CFD0A2D0000E03010E6F450E0D6F020E03
:102E5000106FD70E0F6FA7EC15F0020E12631BD088
:102E6000BBEC10F0010E0D6F020E0E6F2AEC07F096
:102E70000A0E146FD4EC00F0010E0D6F0E6B2AECED
:102E800007F0000E0E6F450E0D6F0201D7510301C2
:102E90000F6F4BEC11F00201D6510301046301D016
:102EA00002D00201D66301D09BD0880E0301056FCA
:102EB0000201A25103010527130E066F0201A3515F
:102EC00003010623000E076F0201A451030107232B
:102ED000000E086F0201A55103010823FFEC00F06A
:102EE0003351096F0A6B0B6B0C6B09370A370B37C1
:102EF0000C3709370A370B370C3709370A370B37C6
:102F00000C37F80E09170551092706510A230751F6
:102F10000B2308510C230201A15103010C5D0EE1AA
:102F20000201A05103010B5D09E102019F51030160
:102F30000A5D04E102019E510301095D51E2010EA7
:102F40000D6F0201D55103010E6FB3EC11F010515A
:102F50000F6F5CEC11F0010E0D6F040E0E6F2AEC7A
:102F600007F00A0E146FD4EC00F0010E0D6F0E6B1B
:102F70002AEC07F002019E51A26F9F51A36FA0514E
:102F8000A46FA151A56F2CD003010D6B0201D2518A
:102F900003010E6F0F6B4AEC14F0100521E145ECB4
:102FA00014F00D5306E00D0509E0020E0D630FD07D
:102FB0000AD0130E0D6FD1EC10F009D00E0E0D6F6C
:102FC000D1EC10F004D0120E0D6FD1EC10F0020114
:102FD000D66B040E03010D6F050E0E6F09EC12F097
:102FE000EEEC10F00201D25103010D6F82EC12F0F1
:102FF00004D702019E6B9F6BA06BA16BD26BA26B7F
:10300000A36BA46BA56BD86BE091E093E095E09780
:10301000E099A66BA76BA86BA96B850E0001606F8A
:10302000616B8D0E626F636B960E646F656B9F0EA6
:10303000666F676BA80E686F696BB20E6A6F6B6B19
:10304000BD0E6C6F6D6BC80E6E6F6F6BD40E706FB4
:10305000716BE10E726F736BEE0E746F756BFC0E1D
:10306000766F776B0B0E786F010E796F1B0E7A6F90
:10307000010E7B6F2C0E7C6F010E7D6F3E0E7E6FFE
:10308000010E7F6F510E806F010E816F650E826F92
:10309000010E836F7A0E846F010E856F910E866F1D
:1030A000010E876FA90E886F010E896FC20E8A6F9D
:1030B000010E8B6FDD0E8C6F010E8D6FF90E8E6F12
:1030C000010E8F6F170E906F020E916F370E926F79
:1030D000020E936F590E946F020E956F7D0E966FD0
:1030E000020E976FA30E986F020E996FCB0E9A6F18
:1030F000020E9B6FF50E9C6F020E9D6F220E9E6F4F
:10310000030E9F6F520EA06F030EA16F850EA26F6C
:10311000030EA36FBA0EA46F030EA56FF30EA66F76
:10312000030EA76F2F0EA86F040EA96F6F0EAA6F64
:10313000040EAB6FB20EAC6F040EAD6FFA0EAE6F35
:10314000040EAF6F460EB06F050EB16F960EB26FE4
:10315000050EB36FEB0EB46F050EB56F450EB66F6F
:10316000060EB76FA50EB86F060EB96F0A0EBA6FCE
:10317000070EBB6F750EBC6F070EBD6FE60EBE6F00
:10318000070EBF6F5F0EC06F080EC16FDE0EC26FFD
:10319000080EC36F650EC46F090EC56FF40EC66FBF
:1031A000090EC76F8C0EC86F0A0EC96F2C0ECA6F3E
:1031B0000B0ECB6FD60ECC6F0B0ECD6F8B0ECE6F72
:1031C0000C0ECF6F4A0ED06F0D0ED16F140ED26F52
:1031D0000E0ED36FEA0ED46F0E0ED56FCD0ED66FD6
:1031E0000F0ED76FBE0ED86F100ED96FBD0EDA6FEF
:1031F000110EDB6FCB0EDC6F120EDD6FE90EDE6F92
:10320000130EDF6F180EE06F150EE16F590EE26FAF
:10321000160EE36FAD0EE46F170EE56F160EE66F38
:10322000190EE76F940EE86F1A0EE96F280EEA6F19
:103230001C0EEB6FD50EEC6F1D0EED6F9B0EEE6F3F
:103240001F0EEF6F7C0EF06F210EF16F7A0EF26F92
:10325000230EF36F960EF46F250EF56FD30EF66FF7
:10326000270EF76F310EF86F2A0EF96FB30EFA6F53
:103270002C0EFB6F5B0EFC6F2F0EFD6F2C0EFE6F86
:10328000320EFF6F280E0101006F350E016F510ED7
:10329000026F380E036FAB0E046F3B0E056F370ED7
:1032A000066F3F0E076F000E056E300E0201626F53
:1032B000640E636F660E646F690E656F6A0E666FEB
:1032C0006C0E676F6D0E686F740E696F760E6A6FA5
:1032D000770E6B6F7E0E6C6F2B0E6D6F3D0E6E6FEB
:1032E0006F6BE09BE09DE09FE791E793AE6BAF6B68
:1032F000B06BB16BC06BC16BC26BC36BC46BC56B86
:10330000E66BE795E797E799010EE96FCE6BCF6B18
:10331000020E706F030E786F040E806F596A5A6A3E
:103320005B6A5C6A5D6A5E6A5F6A906B916B926BC6
:10333000936B946B956B966B976B986B996B9A6B81
:103340009B6B9C6B9D6BEE6BEF6BF06BF16BF26BA1
:10335000F36BF46BED6BF56BF66BF76BF86BF96B6E
:10336000E79BE79DD06BD16BFA6B010E0301006FF9
:10337000320E016F030E026F010E036F7BEF16F02A
:10338000EACF01F0E9CF02F0F4CF03F0F3CF04F07D
:10339000F2A418D0F29A850ED66E0201D32B080E35
:1033A000D36101D002D0D36BD42BD95303E024ECEA
:1033B00001F00CD0FA5303E074EC02F007D0C8EC33
:1033C00002F004D0829281868188818AF294F28A06
:1033D00004C0F3FF03C0F4FF02C0E9FF01C0EAFF2D
:0233E0001100DA
:020000040001F9
:10AC00000100000000000000000000000000000043
:10AC10000000000000000000000000000000000034
:10AC20000000000000000000000000000000000024
:10AC30000000000000000000000000000000000014
:10B3600000000000000000000000000000000000DD
:10B3700000000000000000000000000000000000CD
:10B3800000000000000000000000000000000000BD
:10B3900000000000000000000000000000000000AD
:10B3A000000000000000000000000000000000009D
:10B3B0007F000000007F7F0000007F7F7F00007F14
:10B3C0007F7F7F007F7F7F7F7F007F7F7F7F000089
:10B3D0007F7F7F0000007F7F000000007F60703F64
:10B3E000023C0303304848037B282808040C1C0C4B
:10B3F00004003E1C080000081C3E0010181C181019
:10B40000000000000000005F0000000700070014BB
:10B410007F147F14242A7F2A12231308646236497A
:10B420005522500005030000001C2241000041226B
:10B430001C00082A1C2A0808083E08080050300092
:10B4400000080808080800606000002010080402D6
:10B450003E5149453E00427F4000426151494621EC
:10B4600041454B311814127F1027454545393C4A58
:10B4700049493001710905033649494936064949A8
:10B48000291E00363600000056360000000814223F
:10B490004114141414144122140800020151090625
:10B4A000324979413E7E1111117E7F494949363E2C
:10B4B000414141227F4141221C7F494949417F0945
:10B4C0000901013E414151327F0808087F00417F58
:10B4D00041002040413F017F081422417F4040400D
:10B4E000407F0204027F7F0408107F3E4141413EBD
:10B4F0007F090909063E4151215E7F091929464607
:10B500004949493101017F01013F4040403F1F202F
:10B5100040201F7F2018207F6314081463030478E1
:10B520000403615149454300007F41410204081072
:10B530002041417F0000040201020440404040409D
:10B54000000102040020545454787F4844443838A1
:10B5500044444420384444487F3854545418087EA6
:10B56000090102081454543C7F0804047800447D07
:10B5700040002040443D00007F10284400417F40AF
:10B58000007C041804787C08040478384444443867
:10B590007C14141408081414187C7C08040408484B
:10B5A00054545420043F4440203C4040207C1C2004
:10B5B00040201C3C4030403C44281028440C505053
:10B5C000503C4464544C44000836410000007F0065
:10B5D00000004136080008082A1C08081C2A080830
:10B5E00070292429707028252870702A252A702037
:10B5F0005456557820545554787F7F4949493D42E7
:10B6000042423D304A484A305C322A261D18643C8A
:10B6100026183D4040403D384240227815167C16A1
:10B620001554341C161518041820184A5555552958
:10B630007E097F09093454385458487E4949427F6D
:10B6400005157A501C3E3E3E1C1C2222221C081C62
:10B650003E1C08081422140800007700000E513127
:10B660001111605048447E40444A514040514A4480
:10B6700040103854101F04027F020410207F201055
:10B680000000000000705070000000000F01014039
:10B690004078000010204000000030300000050518
:10B6A00045251F0000000000044434140C201078CD
:10B6B000040018084C38004828187C08087C082822
:10B6C0001840484878405454547C0018005840387A
:10B6D000080808080801413D09072010F804020E77
:10B6E0000243221E42427E424222120A7F02423F0F
:10B6F00002423E0A0A7F0A0A044341211F04034210
:10B700003E02414141417F024F221F024A4A4020EE
:10B710001C4222122A46023F424A46034440201E4F
:10B7200008464A321E0A4A3E09080E004E201E04F0
:10B73000453D0504007F08100044241F04044042D6
:10B74000424240422A122A0622127B162200402040
:10B750001F0078000204783F4444444402424222DD
:10B760001E040204083032027F0232021222520EFC
:10B77000002A2A2A40382422207040281028060255
:10B780003E4A4A4A047F04140C4042427E404A4AE0
:10B790004A4A7E040545251C0F40201F007C007E80
:10B7A00040307E402010087E4242427E0E024222FD
:10B7B0001E42424020180204010200070507000053
:10B7C000384448304020555455787C2A2A2A142879
:10B7D000545444207E1010081E38444C54247814CD
:10B7E00012120C085454543C20403C040402020041
:10B7F00007002040443D00050205000018247E2477
:10B8000010147F5440407C0905057838454445387C
:10B810007E1412120C0C1212147E3C4A4A4A3C301E
:10B820002810281858640464583C4140217C635512
:10B83000494141443C047C4445291129450C505060
:10B84000503C0A0A7E0A09443C1414747C141C14EB
:10B850007C08082A080800000000007F7F7F7F7FA7
:10BB60001E4004B4001C900374C00EE0013DC007E9
:10BB7000FC0020100484C010200245C00A0002020C
:10BB8000000008FF09000B25070F080000088009C6
:10BB9000000B25070F080000000000000000000057
:10BBA00000000000001306801D03C0840100000097
:10BBB0000000000000007B0A803505C09E020000E6
:06BBC0000000000000007F
:10BBE0001E4004CC00213004884011300247000977
:10BBF000240125B00498401370024FA00B000202EC
:10BC0000000008FF09010704090201800B25074015
:10BC100008000008FF0901070209010B2507400879
:10BC2000000000000000000000000000000000EB29
:10BC3000040000000000000000000000008B08006D
:0ABC400000000000000000000000FA
:10BC600021E0050081290006DE802258048CA01105
:10BC70003882470009228124980494E014EC02657C
:10BC800000020200212000100202002120181008EA
:10BC9000FF09030701090201900B3105A002F00022
:10BCA00008FF090307020B31017005D0070202F8F3
:10BCB00004010008FF0903070209020B31028E008C
:10BCC000087F09020B2503000A16060402FF000381
:10BCD000000903085F07010902060502FA0B3D0788
:10BCE000030B3807030B35070300000000000000BA
:10BCF00000000000CB040020192C23000000009657
:10BD00000900CB08000000EB0D80F400A407203DE3
:10BD100000E901480F407A00D20300000000000053
:10BD200000000000C032012019002B555261A5947B
:10BD30005458292515564A498515535469C5145533
:0EBD40005A314595564C51A5155354690100D2
:10BD600045200CC88140E00832812BE805D0601DD9
:10BD7000008485C0101A824378081021250885ACFC
:10BD8000B016FC0264180DAF61373487EFB01EEEB9
:10BD9000C38078101BE244CC881FB124AEC49878CD
:10BDA000137BE25000020A0D40B0D040020A0D643D
:10BDB000B0D040020A0D44B0D000080A8DA1B0D026
:10BDC0001C08FF09030701090201800B3105A002CD
:10BDD000F00008FF09030B310170070A0800040195
:10BDE00000085F0903070209020B31029E0008F0F8
:10BDF000090202930B3D02FA0008FF09030701093B
:10BE0000000B310580017006080706080000085F76
:10BE10000211090003800B3D0A1702FD00083F09CB
:10BE200003070409020B2503000A16060402FD009D
:10BE3000085F0300090307010902060502FA0B3D2A
:10BE400007030B3807030B3507030008FF09030737
:10BE50000409020B310580011006080708080000DC
:10BE60000868090201800B1902F8000000000000B8
:10BE7000C31D80F50EC0700760BD0330DC61BD03DB
:10BE800030DC01D8ED30DC0100C31D763B0C779827
:10BE9000ED008C7698ED30DA61B403002C7600006A
:10BEA0000000B31D80D90E00B0DA61B603B0DD61C9
:10BEB000B90330DC0198ED00008B1D000018ED0087
:10BEC00000C070070000B63B000000EB1D80E10ED3
:10BED000C06C87E10EC062070000000000008B19F3
:10BEE000000018CD0000C070060000B6330000004E
:10BEF000EB1980E10CC06C86E10CC062060000000A
:10BF00000000000000000000000000000000000031
:10BF100000000000000000000000002B29000018B5
:10BF20004B0100C04A0A0000C6520000002B290045
:10BF300000D8480100C0500A0000C65200000000AE
:10BF400000000000000000000000000000000000F1
:10BF500000000000000000000000000000000000E1
:10BF600000000000000000000000000000000000D1
:10BF700000000000000000000000000000000000C1
:10BF800000000000000000000000000000000000B1
:10BF900000000000000000000000000000000000A1
:10BFA0000000000000000000000000000000000091
:10BFB0000000000000000000000000000000000081
:10BFC0000000000000000000000000000000000071
:10BFD0000000000000000000000000000000000061
:10BFE0000000000000000000B0DE000080F5060048
:08BFF00000AC37000060BD0148
:10C020001C0004D4001B700370400ED0013B80073D
:10C03000F4001FF0038040101002430002000000D3
:10C0400008FF0903070109000B310580017006088C
:10C0500007060800000000000000000000000000CB
:10C06000000000EB050000000000000000000000E0
:10C0A0001C0004D4001B700370400ED0013B8007BD
:10C0B000F4001FF003804010100243000200000053
:10C0C00008FF0903070109000B310580017006080C
:10C0D000070A080000000000000000000000000047
:10C0E0000000008B050000000000000000000000C0
:10C120001E4004BC0021D0049CC013800251400A70
:10C130004C012A5005ACC015C00259401000020243
:10C140000000088F032209020B3101D002FD000814
:10C15000FF09030B250703090201300608056802E1
:10C16000F0000880036009000B4902FA000000009B
:10C17000000000000000000000ABC568B1598C163B
:10C180009BC564B1594C168BC564B1580C168BC550
:10C1900060B1570C167BC55CB1566C26C0660200B8
:10C1A0000000ABCD68B3D98C369BCD64B3D94C3687
:10C1B0008BCD64B3D80C368BCD60B3D70C367BCD2A
:08C1C0005CB3D6000000000092
:10C1E00046200DE88144600942812D2806D4E01DD7
:10C1F000108487001242824818092441272C05AD7B
:10C20000D016008364380DB3E1372C07EF001F020E
:10C210008484201136A2485C8931F126F6C4A198A5
:10C22000149F6255DC0A02000040B0D800068C0D55
:10C2300080D0D8000A8E0DC0F0D8000E900D0011ED
:10C24000D90012920D00000000089F0903070109A0
:10C250000201900B2505A002F000089F09030B3195
:10C2600001700708080004010008FF09030702091C
:10C27000020B31029E0008F0090202930B3D02FA04
:10C280000008FF0903070109000B31058001700652
:10C2900008070608000008FF0211090003800B319F
:10C2A0000A1702FD00083F09020B2503800A140744
:10C2B000BF02FF00085F030009030701090206052A
:10C2C00002FA0B3D07030B3807030B350703000881
:10C2D000FF0903070409020B310580011006080756
:10C2E000080800000878090201800B1902F800080C
:10C2F0004F0903070109020B190130075802FF001B
:10C3000000000000000000000000000000D8ED86E2
:10C31000BBE96EBC9BEFF6BB050F231E000000803F
:10C320000D0F00000000002C780000231E0000000C
:10C33000800D0F0000000000000000000000B0E1D0
:10C340000118F1006C7800163C00FB1D00F31D0085
:10C3500000D8EF008C77000060BA0330DC010000E9
:10C36000231E0000D8F0006C78000000000060C1BF
:10C370000300231E000000800D0FC0860760C1036C
:10C38000B0DF0198F1000000000000000000000094
:10C39000000000000000000000000000000000009D
:10C3A00000000000000000000000003B2D00000025
:10C3B0000000D869012CB500B65A00732D000000AA
:10C3C00000000000732D80C116C0640B60B0050032
:10C3D0000000000000000030D902D86C018CB500CC
:10C3E000000000000000000030D902D86C01ECB45D
:10C3F00000000000000000003B2D80A516C0560B79
:10C4000060AE0500000000000000732D80C116C062
:10C41000640B60AB05000000000000000000005B42
:10C420002D80B11600000000000000632D80C916A9
:10C43000C0660B60A70500000000000000000000BF
:10C4400000000000000000000000000000000000EC
:10C4500000000000000000000000000000000000DC
:10C4600000000000000000000000000000000000CC
:10C4700000000000000000000000000000000000BC
:10C4800000000000000000000000000000000000AC
:10C49000000000000000004B05000058470000C0ED
:08C4A00052010000D61100005A
:10C4E00030600A90813900081601287805BE201BAB
:10C4F000B8837C40100A8241380808C12290849A8F
:10C500005014AA4259A80B8581329006DD901C0078
:10C5100000000000305800008405005058000086DC
:10C52000050370580000880520905800048A4503D0
:10C53000000000089F09030701090201900B25056F
:10C54000A002F000089F09030B49017007020800D0
:10C55000040100085F0903070109020B55029E0050
:10C5600008F0090202930B3D02FA00089F09030735
:10C570000109000B3105800170060807060800005C
:10C5800008FF0211090003800B310A1702FD0008A1
:10C590003F09020B2503800A1407BF02FF00085F52
:10C5A0000300090307010902060502FA0B3D070310
:10C5B0000B3807030B3507030008FF0903070409BD
:10C5C000020B3105800110060807080800000878F2
:10C5D000090201800B1902F800084F09010B190725
:10C5E0005802FF0000000000000000000000531E81
:10C5F0000000000000005B1E0000000000000000C2
:10C60000000000003B2D0000000000C8094052005F
:10C61000B202101700000000000000732D80C0005F
:10C6200044062030000000000000000030D902C89D
:10C630000C405800000000000000000030D902C883
:10C640000C404E00000000000000003B2D80A400C4
:10C650006405202E00000000000000732D80C00043
:10C660004406202B000000000000000000005B2DAD
:10C6700080B00000000000000000632D80C800644E
:10C6800006202700EB0D80F4004C2A00D61B00E9A1
:10C6900001480FC0A40260BD0100000000000000BE
:10C6A00000305601480A00000000000000000000B1
:08C6B000305601480A40480021
:10C6E0002740096C0135700704C1253005B5001AD3
:10C6F000940378B00FF8413FF007FF202288849917
:10C700004014AA8259B00B00000000100000000283
:10C71000000030000000040000500000000600008F
:10C7200070000000080000000000089F09030701D6
:10C73000090201900B2505A002F000089F09030BD8
:10C7400049017007020800040100085F090307019E
:10C7500009020B55029E0008F0090202930B3D02EC
:10C76000FA00089F0903070109000B3105800170D9
:10C770000608070608000008FF0211090003800BE5
:10C78000310A1702FD00083F09020B2503800A1435
:10C7900007BF02FF00085F03000903070109020643
:10C7A0000502FA0B3D07030B3807030B350703009F
:10C7B00008FF0903070409020B3105800110060870
:10C7C00007080800000898090201800B0D02FD000F
:10C7D000084F09010B19075802FF00000000003B39
:10C7E000290000C8090000E4042029005901880B31
:10C7F0000000000000309702880B40600022031008
:10C80000180000000083290000080B406400320378
:10C8100010160000000073290000880B40640032ED
:10C82000039013000000003B290000C8094052009B
:10C83000B20210170000000073290000880B40604E
:10C8400000220390150000000000000000B09502D7
:10C85000C80A4058000063290000000000080B408F
:06C8600064003203901396
:10C8A0001EA004E8801DC0037A800FF80140200814
:10C8B00008812140048A8011380248E00A00020001
:10C8C000004000000008FF0903070209020B2505CC
:10C8D000200140060807400800000000000000009A
:10C8E0000000000000000000CB040000000000C0B9
:10C8F00032010000000000C032010000000000B062
:06C900004C00000000FFE6
:10C9200077002A8405BB901840C36C500ED1413E5D
:10C930004C081AB124A444993013678250600A53FA
:10C94000112C9E45BEE8182BE3689C8DC2D139603E
:10C95000C7F5E01F1C648884113CB2484E492D89FC
:10C9600026E8849F38948E92539E4A57B12B8D456A
:10C97000B51497E9325EE80B83293140C6CC289A7A
:10C9800051636CAACDB8E1371027E5541DB9737A0D
:10C99000724FF2C93E030800001B0000A8B50080DA
:10C9A0009B2B0000000200002090180002090020CC
:10C9B00090004C020900259000540E09C0249000FC
:10C9C0004C020900259000540209C22490504C02E8
:10C9D0008905259060540289C62490704C0289070D
:10C9E0002590905C0E89C64460C27C04A70C4880E8
:10C9F000D28404A98D48883ECE48A0EA90042C4FEA
:10CA0000E9B01A100289D7249080510289582590E4
:10CA1000904D0289D92490A0510289D8E590904D7B
:10CA200082EF74E63482F07C263584F164663582C8
:10CA3000F26CE63482C984E63482C984263584C91E
:10CA40008C66358EC98CE6348CF8CCE7348CF8CC07
:10CA500027358CF8CC67358CF8CCE7348CF8CCE7EC
:10CA6000348CF8CC273588EDCCE73590EE285A0386
:10CA7000090308FF0701090201900B3105A002F02C
:10CA80000008FF0903070209020B31017005D007F6
:10CA90000202F8040100090206050B3108FF02F04A
:10CAA0000706020007160A2500090308FF07010907
:10CAB0000006050B3D02F007060200072002F00009
:10CAC000090308FF07010902015006010B310705A0
:10CAD00002FE00090201800B3D08C00208070202A5
:10CAE000F00702020007160A3400090308FF02FCDF
:10CAF000000300090308FF07010902060502FF0BF6
:10CB00003D07030B3807030B3407030B31070304FE
:10CB100007000300090308FF07010902060502FFD9
:10CB20000B3D07030B3807030B3507030B310703D6
:10CB30000407000300090308FF07010902060502B4
:10CB4000FF0B3D07030B3807030B3607030B3107B9
:10CB500003040700090308FF0701090006050B3D50
:10CB600002F00706020007060A2500090308FF0273
:10CB7000F00008C4090006050B3D02F0070602009C
:10CB800007060A250000006B0400200D2C23582303
:10CB900000B4818044C0349006D2C03202608D401F
:10CBA0001A0011006B04D200002C23008035020013
:10CBB0009006806504000000947F000000000000E3
:10CBC0000000000000000038008B4562892596189F
:10CBD00012039018C2425800C2424A48090121205B
:10CBE000002B1D000000000000000000000000CB32
:10CBF00008116A8D48230DA481658408D00C421168
:10CC000001D608A481658408B546200DA4816584F9
:10CC100008B546208D34D248036B0400200D2C2328
:10CC200044803502401B0898C632420458239006BF
:10CC3000D2C032823502CB0811201922006B0400C9
:10CC40000000000000000000000000A7D100202527
:10CC50008486CC901212436CC80CA121258486CC0A
:10CC60009012124366C80BC7CD0000446000480C08
:10CC70002002034070442022008223022407100176
:10CC8000622302A487DC00C30D40040680C4002296
:10CC900030000487D8101A1120318008101A112092
:10CCA000B8E4B24B0F030E8000911E80E410210205
:10CCB000447E081011223B00C12133C406030EF24A
:10CCC000031100E9010000000028FE000000000040
:10CCD0008B0D1120332230101A8800488C081C1B41
:10CCE000112031224070B18586E08800B1213422C4
:10CCF00040664480C40000630DE73F2524869410FD
:10CD0000165242621C8094105A6689851555502926
:10CD100005144E3CF90494525A8905072B0DE73F40
:10CD2000192483A0900C524258C808292119248341
:10CD3000A09017C2E200A49453506101630DE73F35
:10CD4000312483B090129241584480C606800890E6
:10CD50000CE73F2CA48464901292E100844504C83F
:10CD60008B0800A30D11203600C1110181D0905D08
:10CD700072C1213BA487FC88001102080E9921365C
:10CD8000006B14120000800800C410441648030908
:10CD9000200100200200000000B046014440200DA8
:10CDA00010019006120000000000004B1400201536
:10CDB0001001100892400CC802590044802088C01D
:10CDC000400644602008000B140000000000000032
:10CDD00000000000004B14002015100110089240C4
:10CDE0000C0802410044802088C0400644602008AE
:10CDF000004319000000808C400440560040048825
:10CE00000A008800410144003B19001001822202FF
:10CE100044050000004A3F00000000002319000004
:10CE20000080980004050000420258F800001B1919
:10CE30000000A0FC0300000000000000003B19807F
:10CE40009C101480A01015000A3E80B400A485A890
:10CE50008800211101322202004319000A3F80ACF0
:10CE60000050F801440580C20F2026B006000043A0
:10CE700019000000000000000000000000231480E2
:10CE8000101008802C1007F240080042402000B229
:10CE90004020816411025B14802C900B8018900458
:10CEA000A2401600D2001007803C58E0006314C274
:10CEB00000110039200A84012200A240180803440E
:10CEC00000E4803C1007C2400A003B147200900945
:10CED00080401007B2401239E4924A2681C491443E
:10CEE0000E009200005B1400000000000000000033
:10CEF0000000006314000000803000C40100000046
:10CF0000200E008314002010100100840000000097
:10CF1000000000002B1D000000864200411101822C
:10CF20000200844604044223020405001B2500106D
:10CF300001F22202021901C888089017808C00644F
:10CF400084BC90110023250010010223020221015C
:10CF50000889081012002030222010181120240007
:10CF60005B2511201F8008901511202B22403E00C8
:10CF700011202B22405644807C0022403E00B222E9
:10CF80000202F91001002325809088008181088029
:10CF9000C08800210188094400C44404880C200290
:10CFA00044460488890810191100A325420B2D342A
:10CFB00022405020022028224050080D410100004C
:10CFC000000000A329420B2A3422405020022028CE
:10CFD00022405000424368A1854604080A440004E8
:10CFE0004504080AA1010B250000000000C8080044
:10CFF00000000000002B21000000000000000000E5
:10D000000000002B1D0000186B911280B09018C218
:10D01000424A088D029019C2424A880DC32D000071
:10D02000000000000000480CA1C5965B70D9A50760
:10D03000032E0000480F408000F223026407220004
:10D040008203101C11203F6407036E7EE905175A06
:10D0500066B165165A66898595575499E5951811F4
:10D0600020312240624480C4002240624480F4881F
:10D070000089110100032E124362480F89213D44AB
:10D0800018607E0810892131A487C4901E220C30BC
:10D090003F00FB2D022402844804486FC49E70D7D1
:10D0A000EBC576C21E7017EBE176C0DE6FD7EBC51D
:10D0B00076BFDE6E17EBE176BB1E6E87EBC576C4DE
:10D0C000DE6E17EBF5363FA30D0000480C406800FC
:10D0D000320300008901C80B0000000000000000BE
:10D0E00000000080BD26B1CC007F4D4100480C00FF
:10D0F0000000000000000000002B21112025800806
:10D10000905862291101522202002911015652221F
:10D11000009012116025240200291101522202A45C
:10D12000440400CFCCC01101522202A4440448861A
:10D1300008901211201922404A4480948800C91096
:10D1400001522202A44404488608901211A09901B9
:0AD15000684680532202A44404FF45
:10D160004AA00DF88146A0094A812E3806D6201E15
:10D170001884882012460249280926E128A085C47F
:10D18000A01A8CC37938102402461C092FA126EC62
:10D1900084A070149AC254C80A5FA12CAC85B870E0
:10D1A00017FAC260608C9741340002034D4740D0AB
:10D1B000740A8A0DC7B0D8700E8A0D07B1D8700AEC
:10D1C0008A0DC7B0D8700E8A0D07B1D870089F09B4
:10D1D000030701090201900B2505A002F000089F3A
:10D1E00009030B31017007080800040100089F09BA
:10D1F00003070209020B31029E0008F009020293A4
:10D200000B3D02FA0008FF0903070109000B310575
:10D210008001700608070608000008FF09000300E7
:10D220000B310A1702F400083F09020B2503800A9C
:10D230001407BF02FF00085F03000903070109028A
:10D24000060502FA0B3D07030B3807030B350703EE
:10D250000008FF0903070409020B310580011006CD
:10D260000807080800000878090201800B1902F875
:10D2700000084F0903070109020B19013007580282
:10D28000FF0000000000F319F6332C68200260460E
:10D2900003309F613FC38286190D431AA6340C697F
:10D2A00098D1B0A08108000B1A880098CFB09F6178
:10D2B00041031100331A80210D2B1A66340C69D8F2
:10D2C000D230A5614BC3900698CFB09F6141031146
:10D2D00000331A80F90CFB191634CC6818D230A52B
:10D2E0006148C38C86050D440058D04004C07C863C
:10D2F000FD0C0B1A880098D1000C6958D130A3613D
:10D3000048C39686290D5B1A8634AB1980DD0CC0A4
:10D310006086C90CC05C86C50C8319E6320073199F
:10D3200080B90C8319008B1980C50C8319E6320C67
:10D330006698CCB09A6137C36486D50C83192633BE
:10D34000CC6518CC309701931980D50CC06E86C976
:10D350000CAB1906334C6698CBB0986132C3628629
:10D36000C10C73190633008B1980B90C831926334D
:10D37000AC6618CC30996130C35C86C10CC05C06C9
:10D38000603003000000000000000000000000000A
:10D390003B2980CD14C0520A603505309302984C69
:10D3A000016CA500765300232980C114C0520A6085
:10D3B0003505309302984C01CCA4002653000000A0
:10D3C000000000000000000000000000000000005D
:10D3D000000000000000000000000000000000004D
:10D3E000000000000000000000000000000000003D
:10D3F000000000000000000000000000000000002D
:10D40000000000000000000000000000000000001C
:10D41000000000000000000000000000000000000C
:10D4200000000000000000000000000000000000FC
:10D4300000000000000000000000000000000000EC
:10D4400000000000000000000000000000000000DC
:10D4500000000000000000000000000000000000CC
:10D460000000000000004B090000584A0000C052B4
:10D4700001000096120000004B0580A502C06A82E0
:10D48000A502C05282A50200002C2500960A0000C9
:10D49000B0E600008035076B0E0060CD0100006B28
:10D4A0000ED61C006B0E40847973108808B4E660B9
:10D4B000CD01B0E660CDC19A0360CD01B0E6005861
:04D4C00073B0E6FF60
:10D4E00034800DE40141300934412CD005C380184B
:10D4F000140363700C9041325006CBE01BCC838345
:10D50000B0115E4251D80A6F61305C86D5401CBCB8
:10D51000C37D8010020806409060000608068090D7
:10D5200060000A0806C0B060000A0806E0A0684073
:10D53000020886439060000608C6839060000A08CF
:10D5400086C3B060000A0886E3A06840090208A00C
:10D5500001800B19070402E800090008FF0B2502EF
:10D56000F000090308FF0701090201900B3105A033
:10D5700002F0000903088002E000090308FF070128
:10D58000090201900B3105A007020903088002F08F
:10D5900000090108600B3102F800090108C00B31D5
:10D5A00002F0000000000000000000EB0480A40076
:10D5B000A403202900E900480A403A00920200EB47
:10D5C0000480A400A403202900E900480A403E008A
:10D5D000B20200030580B0000404202C0001010801
:10D5E0000B404000C20200030580B0000404202C60
:10D5F000000101080B404400E20200230580C00046
:10D6000084042030002101080C404800020300235C
:10D610000580C000840420300021010809812122F6
:10D620000071212200230580C0008404203000D92D
:10D6300000C8094036C80639212700AB0980C00060
:10D640006406203500A901080C406600520300ABB7
:10D650000980C0006406203500A901080E406E0054
:10D66000520300AB0980C0006406203000C101C82D
:10D670000D406A00320300AB0980C000640620350B
:10D6800000A901080C406600020300CB0C8095083D
:10D6900029619902B012015866B012212500CB14FD
:10D6A00080950800CB0C80950829619902B0120181
:10D6B0005866900C8064B04C21192C330000831DF7
:10D6C00080C10C4B1D809C901476320C7600063382
:10D6D0002C750096320000631D80B10C731D80C450
:10D6E000101876328C75000633CC7500E6320000D7
:10D6F0000000000030D801880B4058007242525898
:02D70000CA005D
:10D720001C0004CC001A50036CC00DC00139400726
:10D73000EC001ED0037CC00F00024100020000007C
:10D7400008FF0900035F07040902017006050B25A5
:10D7500002E80000000000000000000000000000DF
:10D7600000EB05160BAC17582CB05E60B1C07A8187
:10D77000C502EB05160BAC17582CB05E60B1C07A31
:04D7800081C502FF5E
:10D7A0001C0004D4001B700370400ED0013B8007A6
:10D7B000F4001FF00380401010024300020000003C
:10D7C00008FF0903070409020B1905800110060868
:10D7D0000708080000000000000000000000000032
:10D7E0000000004B06960C2C190000000000000001
:04D7F000000000FF36
:10D820002BE0086081334007FE00251805B2A019DF
:10D83000888376C00FFA813FF807002122BC84A6B6
:10D84000A01744C373B80F0E424300020200202009
:10D850000000028201202018000C0484E2504828B5
:10D860000C0484E2504828088F09030701090201CB
:10D87000800B3105A002F000088F09030B31017005
:10D88000070A080004010008FF0903070209020B48
:10D8900031029E0008F0090202930B3D02FA0008D3
:10D8A0008F0903070109000B310580017006080785
:10D8B0000608000008FF0211090003800B310A1757
:10D8C00002FD00085F0903070409020B250300029B
:10D8D000FD00085F0300090307010902060502FABB
:10D8E0000B3D07030B3807030B3507030008FF093F
:10D8F00003070409020B3105800110060807080818
:10D90000000008A8090201800B1902F80008D009DC
:10D9100003070409020B25030002E40000000000D5
:10D92000EB14D629AC5300000000000000000000FA
:10D9300000E31CC6398C7318EA30D761AFC35C07AB
:10D9400060AAC35C87B50EC05287B50E631D00E3A5
:10D950001CC6398C7358EBB0D961B4C3660760AF8D
:10D96000C36687C90EC05C87C90E8B1D00E3EC3807
:10D970003BCE629C1D67C7598CB3E3EC388B717644
:10D980009C1D6731CE8EB3E32CC6D971769CC53809
:10D990003BCE8EB31867C7D97116E3EC383BCE6225
:10D9A0009C1D67C7598CB3E3EC388B71769C1D675F
:10D9B00031CE629EC5408B95164B2D865AACB4185D
:10D9C0006901EBD43AB54E619D5AA7D629AC53EB09
:10D9D000D43A85756A9D5AA7B04EAD53EB14D6A9BB
:10D9E000756A9DC23AB54EAD5358A7D6A9750AEBD4
:10D9F000D43AB54E619D5AA7D629AC53EBD43A859B
:10DA0000756A9D5AA7B04E619DC23A82750AEB14A1
:10DA1000D629AC2358A700CB08806504C032026029
:10DA20001901B08C005846002C230096110000000C
:10DA300000000000000000000000EB0DD61BAC371A
:10DA4000586FB0DE60BDC17A83F506EB0DD61BAC16
:0CDA500037586FB0DE60BDC17A83F50668
:10DA60004A800BB4013E900828412AC005CBC01C57
:10DA7000EC0383701010424250080B8124D404A59B
:10DA8000F015D6C25D180C8F6133B486DFB01CAEC2
:10DA9000C378780FFBE1404C880FB1226EC49078B8
:10DAA000125BE24C008A4C212B0002000040A0587F
:10DAB00068068AC546A05870088A450708FF09030A
:10DAC0000701090201800B3105A002F00008FF09DF
:10DAD000030B310170070A080004010008FF090365
:10DAE000070209020B31029E0008F0090202930BA3
:10DAF0003D02FA0008FF0903070109000B31058008
:10DB000001700608070608000008FF02110900035B
:10DB1000800B310A1702FD00083F090307040902C0
:10DB20000B2503000A16060402FD00085F03000926
:10DB30000307010902060502FA0B3D07030B38072C
:10DB4000030B3507030008FF0903070409020B3123
:10DB5000058001100608070808000008780902017E
:10DB6000800B1902F8000000000000000000C05205
:10DB700085A50AC05285950A2B1580950A1315268E
:10DB80002A4C5400831900000080C90C000000C01A
:10DB90005606000000931900000080D10C00000020
:10DBA000C06E86D50CA319063300000000000000EB
:10DBB00000B0DB61B7C37287F10ECB1DC63B00001E
:10DBC0000000000000000000000000000000000055
:10DBD0000000000000000000000000000000000045
:10DBE0000000000000000000000000000000000035
:10DBF0000000000000000000000000CB04000058FE
:10DC0000460000C032010000961100000000B0DEA6
:10DC1000000080F5060000AC37000060BD01000088
:10DC200000000000000000000000000000000000F4
:10DC300000000000000000000000000000000000E4
:10DC400000000000000000000000000000000000D4
:10DC500000000000000000000000000000000000C4
:10DC600000000000000000000000000000000000B4
:10DC700000000000000000000000000000000000A4
:10DC80000000000000000000000000000000000094
:10DC90000000000000000000000000000000000084
:10DCA0000000000000000000000000000000000074
:10DCB0000000000000000000000000000000000064
:10DCC000000000000000003329809914332980BD32
:10DCD000146B2980AD14C0560A000066526CA50072
:10DCE000432980A1147B2980BD146B290000584B67
:10DCF000B196622FC55A0A000033298099147B29F6
:10DD000080BD146B2980AD14C0560A000066526CA9
:10DD1000A500332966520CA50086520CA500F652C8
:08DD2000ACA50000000000FFAB
:10DD60001C0004A40015B00258400B70012F0006DF
:10DD7000C40019300368400DB001370002000000F4
:10DD800008FF09000B3102FB00000000000000004A
:10DD900000000000000000C305B05B00A305305781
:0EDDA000006B05B05A00CB05B05E000000001D
:10DDE0001EA004D0801EE0037E00100802426008DE
:10DDF00010812260048E001248024A200C000200AA
:10DE0000004000000008FF0211090003800B310AE6
:10DE10001702FD00080007020800080000000000CB
:10DE200000000000000000000000EB0580C502C0FB
:10DE30007A0160B100B05E00582C00AC1700160BE0
:0EDE4000008B09000000000000000000000040
:10DE6000807F7F80808080808080808080808181B2
:10DE70008181818181818181818181818181818192
:10DE8000808080808080808080807F7F7F7F7F7F98
:10DE90007F7F7F7F7F7F7F7F807F8080808080808B
:10DEA0008080808080808080808080808080808171
:10DEB0008081818181818181818181818181818153
:10DEC00080808080808080808080808080807F7F54
:10DED0007F7F7F7F7F7F807F7F80807F7F7F7F804E
:10DEE0008080807F8081807F7F7F7F80817F7A8A32
:10DEF0007E7C85797E7C86807A8881888A7C7B8618
:10DF000090817E86878F887B788585746F7379761C
:10DF10007470737E7F7B7F878888898D8D8A8885E2
:10DF20008889817D7C7E7D777474777B7A7B7F8323
:10DF3000898B8B8C8B8D8A87847E7C7A7A787778B4
:10DF40007B7F80818181858280807A7B7C7A7B7EE9
:10DF50007A7F827B827F7B7367776B6D76667D8E3F
:10DF60008993979FA6A2A49B92927E787A68646513
:10DF70006872757B7F89969493958D8A897E7A7471
