:020000040000FA
:04000000ECEF20F011
:08000800FCEF22F06251666F6B
:100010006151646F656BD8906437653764376537B5
:1000200064376537643765373E0E6427000E6523F5
:10003000000EFB6EFB226551FA6E6451F96E000EE4
:10004000F86E000EF76E9C0EF66E45EF00F0000E97
:10005000F86E000EF76EDC0EF66E45EF00F0000E47
:10006000F86E010EF76E080EF66E45EF00F0000E0A
:10007000F86E010EF76E100EF66E45EF00F0000EF2
:10008000F86E010EF76E180EF66E6651F626D8B0B1
:10009000F72AD8B0F82A0800F5501200000C1925EC
:1000A000313C47515A626A70757A7D7E7F7E7D7AD7
:1000B00075706A625A51473C3125190C00F4E7DB30
:1000C000CFC4B9AFA69E96908B86838281828386A9
:1000D0008B90969EA6AFB9C4CFDBE7F45468616EEF
:1000E0006B20596F7520445420616E64204B7279E7
:1000F00075732021212120203330332026204445D0
:100100004E48414320202000000102030405060759
:10011000000406080C0F111600020506080B0F1448
:100120005053000001E11200F90E00000000000031
:1001300000000000000000000000000000000000BF
:1001400000000000000000000000000000000000AF
:10015000000000000000000000000000000000009F
:100160000000FF0FD8A4E1D700000000000000004D
:10017000000000000000000000000000000000007F
:10018000000000000000000000000000000000006F
:10019000000000000000000000000000000000005F
:1001A0000000502FC1D712005853000001E1120087
:1001B000130EFF0FD8A4FDD70000582FF9D7120057
:1001C0005C53000001E11200C70EFF0FD8A4FDD759
:1001D00000005C2FF9D71200FA0E506F90EC00F07F
:1001E000FA0E506F90EC00F0FA0E506F90EC00F0A9
:1001F000FA0E506F90EC00F04F2FEED71200170E52
:100200006B14D8B46DB4FBD71200FFEC00F0A49EC1
:10021000A49C6F6AFFEC00F0A49EA49C75516F6EC5
:1002200012000401402B3F513D1B40513D1B3D51ED
:100230003E253E6F3E51796FD89079313F273D5131
:100240003F1B3F51796F1200040109B102D00A6BC4
:1002500009810301040109B305D00301D06BD16BFF
:10026000040109830301040109B502D00B6B098560
:1002700009B702D00C6B09870301040109B905D045
:100280000301D26BD36B04010989030104010267E6
:1002900001D012000451756F05EC01F0035302E028
:1002A000030704D0010E056F2B51036F0301D06BC0
:1002B000D16B04010A6B040E0A61FED0030E7C6F41
:1002C000420E7A6F0A517B6F796B7B3779377B37B8
:1002D00079377B377937F80E7B177A517B2779513D
:1002E0007C237B510301D26F04017C510301D36F46
:1002F00003EE42F0E95004010A51756F766B7537D1
:1003000076377537763775377637F80E7515E926EF
:100310007651EA22060EE926D8B0EA2AEF50776F26
:1003200077530AE0770544E0020E776301D055D099
:10033000030E776383D079D00301D351EA6ED25193
:10034000E96E020EE926D8B0EA2AEE500401786F71
:10035000800EEF5C02E1000E785D14E20301D351E0
:10036000EA6ED251E96E020EE926D8B0EA2AEE50C2
:100370000401796FEF50786FD89078337851E00F9F
:100380000C6F5DD00301D351EA6ED251E96E020EBB
:10039000E926D8B0EA2AEE500401786F000E785FA3
:1003A000800EEF58796FD89079311F080C6F47D0C5
:1003B0000301D351EA6ED251E96E020EE926D8B09C
:1003C000EA2AEE500401796FEF30786F78333F0EF0
:1003D00078177851E00F0C6F32D00301D351EA6ED9
:1003E000D251E96E020EE926D8B0EA2AEE50040195
:1003F000786FEF50796F0301D351EA6ED251E96EF5
:10040000040EE926D8B0EA2AEE5004017B6F795138
:10041000EF5C02E178517B5D03E2E00E7A6F02D07F
:100420001F0E7A6F7A510C6F0AD011EC01F03F0E5B
:100430007915786F200E785D0C6F01D00C6B03017D
:10044000D351EA6ED251E96EEE500401786FEF504D
:10045000796F0301D251E96E020EE926D8B0EA2A7B
:10046000EE50040178257A6F7951EF22E9067A512E
:10047000EF6E0C51786F796B0CBF79070301D35184
:10048000EA6ED251E96E070EE926D8B0EA2AEF509B
:1004900004017803F3507A6FF4507B6FEF507903C7
:1004A000F3507B277A510301D02704017B510301CC
:1004B000D12304010A2BFFD60301D0510401756F2B
:1004C0000301D1510401776F2C51786F07E00301CC
:1004D000D1350401773375337807F8D77551800F1C
:1004E000046F1200040110BB03D0800E286F108B24
:1004F0000301040110BD07D00301BA6BBB6BBC6BD9
:10050000BD6B0401108D03010401276701D01200A7
:10051000200E0301E55D04E1970EE46101D004D0F3
:1005200003E30401276B120004012851756F05ECE9
:1005300001F00301E44BE52BE4510401756F030165
:10054000E5510401766F776B786B600E796F7551AA
:100550007927DE0E7A6F76517A23010E7B6F775101
:100560007B23000E7C6F78517C2379510301BA6F95
:1005700004017A510301BB6F04017B510301BC6F7D
:1005800004017C510301BD6FBC51F86EBB51F76E85
:10059000BA51F66E0800F5500401286F12000401EC
:1005A0001753D8A4120000EE59F0E9501851756F96
:1005B000766B7551E9267651EA221951EF6401D024
:1005C00002D0828003D0196701D08290030103EE2C
:1005D00090F0E95004011851776F786B7751E92654
:1005E0007851EA221951EF6401D002D0828203D0FF
:1005F000196701D08292030103EE97F0E9500401DC
:100600001851796F7A6B7951E9267A51EA2219519A
:10061000EF6401D002D0828403D0196701D08294A4
:10062000192B170E196101D01200196B182B070E28
:10063000186101D001D0186B185316E0180517E0A7
:10064000020E186301D016D0030E186301D015D026
:10065000040E186301D014D0050E186301D013D016
:10066000060E1863120012D0829E818212008192BF
:100670008184120081948186120081968188120003
:100680008198818A1200819A828C1200829C828ECB
:1006900012006B51726F6C51736F746B706B03014E
:1006A000BE51040172270301BF51040173230301EA
:1006B000C051040174230301C1510401702372511C
:1006C0006D6F73516E6F74516F6F6F51F86E6E5125
:1006D000F76E6D51F66E0800F550716F7151726FC3
:1006E00012006851EA6E6751E96E030EE926D8B030
:1006F000EA2AEF6626D06851EA6E6751E96EEE503D
:100700006D6F6B6FEF506C6F6D4BEF2AE9066D519B
:10071000EF6E49EC03F072516A6F6851EA6E6751EF
:10072000E96E020EE926D8B0EA2A6A51EF6E6851E6
:10073000EA6E6751E96E030EE926D8B0EA2A080E80
:10074000EF6E6851EA6E6751E96E030EE926D8B084
:10075000EA2AEF066851EA6E6751E96E020EE92651
:10076000D8B0EA2A010EEF14696F6851EA6E67513A
:10077000E96E020EE926D8B0EA2AD890EF32695124
:100780006A6F1200646B656B666B6351666119D0AA
:100790006151676F6251686F71EC03F06A530FE04B
:1007A000010E676F686B6651FF0B05E0D8906737E5
:1007B0006837FF0FF9D76751641368516513662BCB
:1007C000E4D76451676F6551686F12006051EA6E3B
:1007D0005F51E96EE92A6151636F6251EF6EE9067C
:1007E0006351EF6E030EE926D8B0EA2A000EEF6ED1
:1007F0001200170E6B14D8B46DB4FBD71200070E9D
:1008000059611200030170510401616F080E5A61B1
:1008100004D05A51626F606B03D0070E626F606B39
:1008200006EC00F0636F00EE59F0E95059515D6F2E
:100830005E6B5D51E9265E51EA226351EF6E030162
:1008400078510401616F080E5B6104D05B51626FE7
:10085000606B03D0070E626F606B06EC00F0636F95
:10086000030103EE90F0E950040159515D6F5E6B96
:100870005D51E9265E51EA226351EF6E030180511A
:100880000401616F080E5C6104D05C51626F606BA3
:1008900003D0070E626F606B06EC00F0636F03011C
:1008A00003EE97F0E950040159515D6F5E6B5D51A5
:1008B000E9265E51EA226351EF6E12000401596B82
:1008C000070E5961120000EE59F0E95059515A6F64
:1008D0005B6B5A51E9265B51EA22000EEF6E030171
:1008E00003EE90F0E950040159515A6F5B6B5A5175
:1008F000E9265B51EA22000EEF6E030103EE97F04A
:10090000E950040159515A6F5B6B5A51E9265B510A
:10091000EA22000EEF6E592BD3D7040E0401606F4C
:10092000590E5F6F616B626BE6EC03F0586B5E6BA8
:100930002951100F5D6FD8B05E2B5D5158615E512B
:1009400021E0040E626F590E616F0D0E636FC2ECF1
:1009500003F0020102EE08F0E950040158515F6F04
:10096000606BD8905F3760375F51E9266051EA22AB
:10097000E92A6751616F6851EF6EE9066151EF6EC8
:10098000582BD5D7030E606FB20E5F6F020108516E
:100990000401616F020109510401626FE6EC03F08A
:1009A0001200829A8296586B080E58610DD057AF8C
:1009B00002D0828A01D0829A828682965753D8903A
:1009C00057375829586FF0D7829A12000401649162
:1009D000F2BE6481F29E550EA76EAA0EA76EA68285
:1009E00064B1F28E64A1F29EA69412000401056B1C
:1009F000066B076B010E026F086B0301496B020166
:100A0000A26B0301516B0201BC6B0301596B020124
:100A1000D66B0301616B0201F06B8DEC04F01200E8
:100A2000A49EA49CF9EC03F06B80F9EC03F0A49E67
:100A3000A49C6F68F9EC03F0A49EA49C6B82F9EC73
:100A400003F0A49EA49C6B84F9EC03F01200F9EC73
:100A500003F0A49EA49C6B84F9EC03F0A49EA49CD8
:100A60006D9E130E6E6E1200F9EC03F0A49EA49C12
:100A70006B80F9EC03F0A49EA49C080E6F6EF9EC59
:100A800003F06D8E050E6E6EA49EA49C6B82F9EC35
:100A900003F0A49EA49CC00E6F6EF9EC03F0A49E1C
:100AA000A49C1200026B58054CE0020E586301D062
:100AB00059D0030E586301D066D0040E586301D09C
:100AC00074D0050E586301D082D0060E586301D051
:100AD0008FD0070E586301D09CD0080E586301D008
:100AE000A9D0090E586301D0B7D00A0E586301D0BF
:100AF000C5D00B0E586301D0D2D00C0E586301D074
:100B0000E0D00D0E586301D0EED00E0E586301D028
:100B1000FCD00F0E586301D00AD1100E586301D0DB
:100B200017D1110E586301D024D1120E586301D091
:100B300032D1130E586301D03FD1140E586360D1E7
:100B40004DD1E00E0301BE6FDD0EBF6F010EC06F11
:100B5000C16B020E0401296F2A6F5D0E2B6F070E09
:100B60002C6F1200600E0301BE6FDD0EBF6F010E11
:100B7000C06FC16B010E0401296F2A6F5D0E2B6FD0
:100B8000070E2C6F1200600E0301BE6FDA0EBF6FEE
:100B9000010EC06FC16B1D0E0401296F050E2A6F77
:100BA0005D0E2B6F070E2C6F1200200E0301BE6F1F
:100BB000D80EBF6F010EC06FC16B0A0E0401296F02
:100BC000080E2A6F5D0E2B6F080E2C6F1200A00E00
:100BD0000301BE6FD70EBF6F010EC06FC16B010E58
:100BE0000401296F2A6F5D0E2B6F070E2C6F120008
:100BF000200E0301BE6FD70EBF6F010EC06FC16B19
:100C0000010E0401296F2A6F5D0E2B6F070E2C6FEA
:100C10001200E00E0301BE6FD40EBF6F010EC06F55
:100C2000C16B100E0401296F2A6F670E2B6F080E1F
:100C30002C6F1200600E0301BE6FD10EBF6F010E4C
:100C4000C06FC16B1D0E0401296F0A0E2A6F5F0E63
:100C50002B6F080E2C6F1200200E0301BE6FC90E01
:100C6000BF6F010EC06FC16B390E0401296F370EC3
:100C70002A6F5D0E2B6F080E2C6F1200A00E030161
:100C8000BE6FC80EBF6F010EC06FC16B020E0401B4
:100C9000296F2A6F5D0E2B6F070E2C6F1200E00E6E
:100CA0000301BE6FC60EBF6F010EC06FC16B080E91
:100CB0000401296F0A0E2A6F5D0E2B6F080E2C6F30
:100CC0001200E00E0301BE6FC40EBF6F010EC06FB5
:100CD000C16B0D0E0401296F0A0E2A6F5D0E2B6F7A
:100CE000080E2C6F1200E00E0301BE6FC10EBF6F25
:100CF000010EC06FC16B1B0E0401296F0A0E2A6F13
:100D00005D0E2B6F080E2C6F1200200E0301BE6FBC
:100D1000C10EBF6F010EC06FC16B020E0401296FBF
:100D2000010E2A6F5D0E2B6F070E2C6F1200A00EA6
:100D30000301BE6FC00EBF6F010EC06FC16B010E0D
:100D40000401296F2A6F5D0E2B6F060E2C6F1200A7
:100D5000200E0301BE6FC00EBF6F010EC06FC16BCE
:100D6000010E0401296F2A6F5D0E2B6F060E2C6F8A
:100D70001200600E0301BE6FBD0EBF6F010EC06F8B
:100D8000C16B1A0E0401296F080E2A6F5D0E2B6FBE
:100D9000080E2C6F1200600E0301BE6FBC0EBF6FF9
:100DA000010EC06FC16B040E0401296F2A6F5F0E24
:100DB0002B6F070E2C6F1200E00E0301BE6FBB0EEF
:100DC000BF6F010EC06FC16B020E0401296F010ECF
:100DD0002A6F5D0E2B6F070E2C6F1200600E030141
:100DE000BE6FBB0EBF6F010EC06FC16B020E040160
:100DF000296F010E2A6F5D0E2B6F070E2C6F1200EC
:100E0000600E0301BE6FBB0EBF6F010EC06FC16BE2
:100E1000020E0401296F010E2A6F5D0E2B6F070E63
:100E20002C6F1200030103510401576F1200585137
:100E30001D6F2651576301D012005751266F5EEC8B
:100E400004F0256B000E246B010E166F57051FE092
:100E5000060E576301D023D0070E576301D027D069
:100E6000080E576301D02CD0020E576301D034D046
:100E7000030E576301D074D0040E576301D02FD0F6
:100E8000050E576301D066D0575367E069D0596BA0
:100E9000040E5A6F5B6B5C6BFFEC03F019D0596B5F
:100EA0005A6B050E5B6F5C6BFFEC03F011D0596B56
:100EB000070E5A6F030E5B6F5C6BFFEC03F008D0FC
:100EC000596B020E5A6F5B6B050E5C6FFFEC03F003
:100ED000010E1A6F1B6B44D0216B226B41D0596BF2
:100EE0005A6B5B6B060E5C6FFFEC03F0010E596FE3
:100EF0005A6B020E5B6F040E5C6FFFEC03F0020E88
:100F0000596F5A6B040E5B6F020E5C6FFFEC03F0BF
:100F1000030E596F5A6B060E5B6F5C6BFFEC03F0B0
:100F2000040E596F020E5A6F040E5B6F5C6BFFEC80
:100F300003F0050E596F040E5A6F020E5B6F5C6B67
:100F4000FFEC03F0060E596F5A6F5B6B5C6BFFECA6
:100F500003F006D01F6B206B03D05EEC04F0166B21
:100F600057511E6F12005C51F66E5D51F76E5E5167
:100F7000F86E400E626F6251636F620763530AE05E
:100F80006151EA6E6051E96E604B612BEF50F56E76
:100F90000D00F1D70A00840EA66EE6EC04F01200F4
:100FA0005C51F66E5D51F76E5E51F86E940EA66E52
:100FB000E6EC04F01200000E5515586F5651FF0B69
:100FC000576FD1EC04F05551576FD1EC04F012007B
:100FD0008096000E5515586F5651FF0B576FD1EC88
:100FE00004F05551576FD1EC04F080861200026B6B
:100FF000FF0E576104D05751586F52EC05F0838EA5
:101000000A0E586FD4EC00F010EC05F0050E586F86
:10101000D4EC00F010EC05F0050E586FD4EC00F0A5
:1010200034EC05F0F6EC04F01200F9EC03F0A49EA9
:10103000A49C6B80F9EC03F0A49EA49CC00E6F6E80
:10104000F9EC03F0A49EA49C6F6AF9EC03F0A49E53
:10105000A49C4F516F6EF9EC03F0A49EA49C6B848A
:10106000F9EC03F0A49EA49C12000301E46BE56B71
:10107000838E34EC05F0010E0401276F2753FEE147
:1010800027EC05F0839E1200030103EE62F0E950A5
:10109000040159515B6F5C6B5B51E9265C51EA229C
:1010A000EF505D6F300E5D6301D030D0640E5D6334
:1010B00001D042D0660E5D6301D05FD0690E5D63E2
:1010C00001D071D06A0E5D6301D08DD06C0E5D636E
:1010D00001D0A4D06D0E5D6301D0B6D0740E5D63F7
:1010E00001D0DDD0760E5D6301D0EFD0770E5D6369
:1010F00001D005D12B0E5D6301D01BD13D0E5D6388
:1011000001D048D17E0E5D6312005AD1020102EE79
:101110009AF0E9501A0E04015803F350616FF4502D
:10112000626F6151E9266251EA22080EE926D8B0C1
:10113000EA2A000EEF6E1200646B5A51636F0301CE
:1011400003EE42F0E95004015851616F626B613760
:1011500062376137623761376237F80E6115E92609
:101160006251EA22040EE926D8B0EA2AE92A63513C
:10117000EF6EE9066451EF6E1200020102EE9AF082
:10118000E9501A0E04015803F350616FF450626F76
:101190006151E9266251EA22100EE926D8B0EA2A06
:1011A0005A51EF6E12005A51646F636BD8906437D6
:1011B0006337020102EE9AF0E9501A0E0401580357
:1011C000F350616FF450626F6151E9266251EA2277
:1011D000160EE926D8B0EA2AE92A6351EF6EE9062D
:1011E0006451EF6E1200020102EE9AF0E9501A0EFD
:1011F00004015803F350616FF450626F6151E926A6
:101200006251EA22090EE926D8B0EA2AE92A5A519F
:10121000636FEF6AE9066351EF6E1200020102EE9E
:101220009AF0E9501A0E04015803F350616FF4501C
:10123000626F6151E9266251EA220D0EE926D8B0AB
:10124000EA2A5A51EF6E12005A51646F636B643789
:1012500063376437633764376337643763376437BA
:10126000633764376337C00E6417020102EE9AF0E9
:10127000E9501A0E04015803F350616FF450626F85
:101280006151E9266251EA22110EE926D8B0EA2A14
:10129000E92A6351EF6EE9066451EF6E1200020114
:1012A00002EE9AF0E9501A0E04015803F350616FF0
:1012B000F450626F6151E9266251EA220B0EE92671
:1012C000D8B0EA2A5A51EF6E1200030103EE42F041
:1012D000E95004015851616F626B613762376137C1
:1012E000623761376237F80E6115E9266251EA22EA
:1012F000070EE926D8B0EA2A5A51EF6E1200030110
:1013000003EE42F0E95004015851616F626B61379E
:1013100062376137623761376237F80E6115E92647
:101320006251EA22060EE926D8B0EA2A5A51EF6E37
:101330001200020102EE9AF0E9501A0E040158035D
:10134000F350636FF450646F6351E9266451EA22ED
:10135000060EE926D8B0EA2A656BEF505A25666F6B
:10136000D8B0652B300E665F020102EE9AF0E950AC
:101370001A0E04015803F350616FF450626F61510B
:10138000E9266251EA220C0EE926D8B0EA2A665113
:10139000EF6E1200020102EE9AF0E9501A0E0401FB
:1013A0005803F350616FF450626F6151E926625146
:1013B000EA220C0EE926D8B0EA2A5A51EF6E120042
:1013C000020102EE9AF0E9501A0E04015803F3509C
:1013D0005E6FF4505F6F5E51E9265F51EA22130E93
:1013E000E926D8B0EA2A5A390F0B606F6051EF62D4
:1013F000606315D0020102EE9AF0E9501A0E040162
:101400005803F350616FF450626F6151E9266251E5
:10141000EA22150EE926D8B0EA2A000EEF6E5A39F4
:101420000F0B636F020102EE9AF0E9501A0E0401ED
:101430005803F350616FF450626F6151E9266251B5
:10144000EA22130EE926D8B0EA2A6351EF6E0F0E96
:101450005A15636F020102EE9AF0E9501A0E040168
:101460005803F350616FF450626F6151E926625185
:10147000EA22140EE926D8B0EA2A6351EF6E120070
:1014800004013C2B3B51391B3C51391B39513A2546
:101490003A6F3A51606FD89060313B2739513B1B0E
:1014A0003B51606F1200020102EE08F0E9500401A6
:1014B00058515F6F606BD8905F3760375F51E92696
:1014C0006051EA2259516B6F6C6BD8906B376C3757
:1014D000EE506B27EF506C2349EC03F072515E6FB6
:1014E0005B51EA6E5A51E96E5C6B5D6B5C51E926AB
:1014F0005D51EA225E51EF6E020102EE08F0E95002
:10150000040158515F6F606BD8905F3760375F514F
:10151000E9266051EA2259516B6F6C6BD8906B379A
:101520006C37EE506B27EF506C236B2BD8B46C2BC1
:1015300049EC03F072515E6F5B51EA6E5A51E96EED
:10154000010E5C6F5D6B5C51E9265D51EA225E51D4
:10155000EF6E12004C51576F586B050E5703F35046
:10156000546FF450556F050E5803F35055274D51E5
:101570005427D8B0552B5451576F5551586F596B4C
:101580005A6B600E5B6F57515B27B30E5C6F5851FF
:101590005C23010E5D6F59515D23000E536F5A514C
:1015A00053235B51506F5C51516F5D51526F5251DB
:1015B000F86E5151F76E5051F66E0800F550566FA7
:1015C0005651576F12005C510301056F1200040160
:1015D0005C6BAC0E5D6F010E5E6F5F6BD0EC07F065
:1015E000020E5C6FE0EC00F05C6BAC0E5D6F010E08
:1015F0005E6F5F6B030E616F020E606FB3EC07F0FE
:10160000020E5C6FE0EC00F01200030105510401D2
:101610005C6F1200030104510401576F12000301B3
:10162000FC530BE0040EFC6301D04BD0020EFC63B4
:1016300001D04FD0FC0554E0120012EC07F05753D4
:101640000EE057050CE0020E576301D025D0030EC3
:10165000576301D028D0040E576312002BD003012A
:10166000FD5308E0050E0401576F020E586F17EC8A
:1016700007F01200FF5308E0020E0401576F010E3D
:10168000586F17EC07F01200020E0401576F030E9B
:10169000586F17EC07F01200080E576F050E586FC1
:1016A00017EC07F01200070E576F030E586F17EC78
:1016B00007F01200060E576F050E586F17EC07F073
:1016C0001200040E0401576F050E586F17EC07F057
:1016D00012000401576B050E586F17EC07F012004B
:1016E0000401576B050E586F17EC07F0120052AD4E
:1016F0000AD0596B53515A6F54515B6F55515C6FFF
:10170000FFEC03F006D0596B5A6B5B6B5C6BFFEC24
:1017100003F052AB0BD0010E596F53515A6F545115
:101720005B6F55515C6FFFEC03F007D0010E596FF2
:101730005A6B5B6B5C6BFFEC03F052A90BD0020E93
:10174000596F53515A6F54515B6F55515C6FFFEC99
:1017500003F007D0020E596F5A6B5B6B5C6BFFECAA
:1017600003F052A70BD0030E596F53515A6F5451C7
:101770005B6F55515C6FFFEC03F007D0030E596FA0
:101780005A6B5B6B5C6BFFEC03F052A50BD0040E45
:10179000596F53515A6F54515B6F55515C6FFFEC49
:1017A00003F007D0040E596F5A6B5B6B5C6BFFEC58
:1017B00003F052A30BD0050E596F53515A6F545179
:1017C0005B6F55515C6FFFEC03F007D0050E596F4E
:1017D0005A6B5B6B5C6BFFEC03F052A10BD0060EF7
:1017E000596F53515A6F54515B6F55515C6FFFECF9
:1017F00003F01200060E596F5A6B5B6B5C6BFFECCB
:1018000003F012008280828482824FAD02D08182F6
:1018100001D081924FAB02D0818401D081944FA935
:1018200002D0818601D081964FA702D0818801D055
:1018300081984FA502D0818A01D0819A4FA302D00E
:10184000828C01D0829C4FA102D0828E01D0829ED8
:101850004E53D8B412004E0508E0020E4E6301D07C
:1018600006D0030E4E63120004D0829012008292C2
:101870001200829412009E9CC282C2B2FED7C45053
:101880000401526F536B546B5251556F5451526F48
:101890005551536FC35052139E9C5251546F535124
:1018A000556F1200080E556F820E566FE8EC07F068
:1018B0009F0E556F800E566FE8EC07F0280E556F9F
:1018C000820E566FE8EC07F0809682A8FED7AA0E2B
:1018D000556FB80E566FDBEC07F082A8FED72D0EC1
:1018E000556FB80E566FDBEC07F082A8FED7D40E0A
:1018F000556FB80E566FDBEC07F082A8FED7535138
:101900000009556FB80E566FDBEC07F0546B53515E
:10191000546116D082A8FED75251EA6E5151E96E39
:101920005451576F586B5751E9265851EA22EF50DE
:101930000009556FB80E566FDBEC07F0542BE7D754
:1019400082A8FED7556BB80E566FDBEC07F082A865
:10195000FED78086880E556F820E566FE8EC07F032
:101960005F0E556F800E566FE8EC07F01200830E85
:101970000401556FCA0E566FE8EC07F0120005EC33
:101980000BF05C51596F000100EE60F0E95004016A
:1019900058515C6F5D6B5C51E9265D51EA225951EB
:1019A000EF6E59515B6F591D57155A6F40EC0AF095
:1019B00060515C6F5D6B03019E5104015E6F000E10
:1019C00003019F1504015F6F5E515C03F350030137
:1019D000F66FF450F76F04015F515C03F35003019D
:1019E000F72704015E515D03F3500301F72704015B
:1019F0005AA120D00301F7510B0802E1F651B808B3
:101A000019E20C0EF75D02E15B0EF65D13E20401D4
:101A10005981800E0301C26F9E51C227CB0EC36F46
:101A20009F51C323A40EC46FA051C423000EC56FE1
:101A3000A151C52340EC0AF060515C6F5D6B03015E
:101A40009E5104015E6F000E03019F1504015F6F3C
:101A50005E515C03F3500301F66FF450F76F04011D
:101A60005F515C03F3500301F72704015E515D03EE
:101A7000F3500301F72704015AA320D00301F751C3
:101A8000170802E1F651700819E2170EF75D02E13E
:101A9000C10EF65D13E204015983800E0301C66F87
:101AA0009E51C627CB0EC76F9F51C723A40EC86F88
:101AB000A051C823000EC96FA151C92340EC0AF000
:101AC00060515C6F5D6B03019E5104015E6F000EFF
:101AD00003019F1504015F6F5E515C03F350030126
:101AE000F66FF450F76F04015F515C03F35003018C
:101AF000F72704015E515D03F3500301F72704014A
:101B00005AA520D00301F751230802E1F651280815
:101B100019E2230EF75D02E1700EF65D13E2040197
:101B20005985800E0301CA6F9E51CA27CB0ECB6F19
:101B30009F51CB23A40ECC6FA051CC23000ECD6FB0
:101B4000A151CD2340EC0AF060515C6F5D6B030145
:101B50009E5104015E6F000E03019F1504015F6F2B
:101B60005E515C03F3500301F66FF450F76F04010C
:101B70005F515C03F3500301F72704015E515D03DD
:101B8000F3500301F72704015AA70FD00301F751BF
:101B90002E0802E1F651E00808E2300EF75D02E19E
:101BA000270EF65D02E20401598740EC0AF060510D
:101BB0005C6F5D6B03019E5104015E6F000E0301BB
:101BC0009F1504015F6F5E515C03F3500301F66FD4
:101BD000F450F76F04015F515C03F3500301F727E2
:101BE00004015E515D03F3500301F72704015AA974
:101BF0000FD00301F7513A0802E1F651980808E2C4
:101C00003A0EF75D02E1C30EF65D02E20401598966
:101C100040EC0AF060515C6F5D6B03019E51040162
:101C20005E6F000E03019F1504015F6F5E515C0340
:101C3000F3500301F66FF450F76F04015F515C033A
:101C4000F3500301F72704015E515D03F3500301D4
:101C5000F72704015AAB0FD00301F751460802E100
:101C6000F651500808E2460EF75D02E16A0EF65D95
:101C700002E20401598B0301A151C55D08E1A051A5
:101C8000C45D05E19F51C35D02E19E51C25D02E268
:101C9000040159910301A151C95D08E1A051C85D3A
:101CA00005E19F51C75D02E19E51C65D02E204015C
:101CB00059930301A151CD5D08E1A051CC5D05E12F
:101CC0009F51CB5D02E19E51CA5D02E2040159952C
:101CD00004015B5159635B63120059515C6FE3EC83
:101CE0000AF0E7EC0AF0120005EC0BF05C51576FBC
:101CF000596B586B060E586106D057B1592BD890C6
:101D00005733582BF7D7040E596101D003D0010E79
:101D10005A6F12005A6B1200838E640E0401506FCA
:101D200090EC00F04E6BFF0E4E610FD04EA103D031
:101D3000B20E4F6F02D04E0E4F6F15EC08F00A0E28
:101D4000586FD4EC00F04E2BEED7839E12000AECB5
:101D50000BF057B34E8F0AEC0BF057B103D00301D1
:101D6000FD5302E004014E8D04014E510301886FC2
:101D700004014F510301896F0401505103018A6F1F
:101D8000030E0401526F880E516F030E536F52EC15
:101D90000CF0B7EC0CF0120004010253D8B4C8D117
:101DA000065302E00607C4D1040E066F07679DD0F4
:101DB0000253D8B49AD008512A6501D002D0026BE0
:101DC00094D04C6B040E4C618FD0020E4F6F9A0E64
:101DD000546F1A0E4C03F3504E6FF450536F54511E
:101DE0004E2753514F23030E626FB20E616F010EE7
:101DF000636FC2EC03F06751506F030E626FB20E57
:101E0000616F060E636FC2EC03F06751526F4F5162
:101E1000EA6E4E51E96E040EE926D8B0EA2A525114
:101E2000EF6E50530FE0030E626FB20E616F040E3F
:101E3000636FC2EC03F06751516F51A704D0F00EED
:101E4000511301D0516B4F51EA6E4E51E96E050EA0
:101E5000E926D8B0EA2A5151EF6E4F51EA6E4E5141
:101E6000E96E040EE926D8B0EA2AEF523BE0020EF2
:101E7000606F9A0E5F6F1A0E4C03F350526FF4505E
:101E8000536F52515F2753516023020102EE08F055
:101E9000E9500401556FEA50566F4F51EA6E4E51AA
:101EA000E96E040EE926D8B0EA2A536BEF50100F02
:101EB000546FD8B0532B010E545D526F5459010822
:101EC000535FD890523753375251552753515623A9
:101ED0005551E96E5651EA6EEE50616FEF50626FE8
:101EE000E6EC03F04C2B6ED7082B0253D8B420D16C
:101EF0004C6B040E4C6119D1020E546F9A0E526F46
:101F00001A0E4C03F350536FF450516F5251532734
:101F10005151542353514E6F54514F6F4F51EA6EEC
:101F20004E51E96E040EE926D8B0EA2AEF52D8B431
:101F3000FAD04E51616F4F51626F030E636FC2EC66
:101F400003F06751546F506B516B526B536B54A13C
:101F50000AD04E51616F4F51626F070E636FC2EC32
:101F600003F06751506F54A30AD04E51616F4F5127
:101F7000626F040E636FC2EC03F06751516F54A59A
:101F800014D04E51616F4F51626F040E636FC2ECFB
:101F900003F06751526F4E51616F4F51626F080EDF
:101FA000636FC2EC03F06751536F505321E04F5100
:101FB000EA6E4E51E96E050EE926D8B0EA2AEF50D6
:101FC0005025556F4F51EA6E4E51E96E060EE926C7
:101FD000D8B0EA2A5551EF6E51670AD04F51EA6ED8
:101FE0004E51E96E070EE926D8B0EA2AEF50516F3C
:101FF0005153D8B48ED0020E516303D0050E0301A5
:10200000CF6F0401510513E1050E0301CE6F0401EA
:102010004F51EA6E4E51E96E040EE926D8B0EA2A15
:10202000040EEF6204D0030E0301CF6FCE6F070ED4
:102030000401516304D01E0E0301CF6FCE6F040163
:102040004F51EA6E4E51E96E070EE926D8B0EA2AE2
:102050005151EF6E4F51EA6E4E51E96E080EE9266E
:10206000D8B0EA2A5151EF6E4F51EA6E4E51E96EE7
:10207000090EE926D8B0EA2AE92A000E556FEF6A60
:10208000E9065551EF6E4F51EA6E4E51E96E0B0E57
:10209000E926D8B0EA2A000EEF6E4F51EA6E4E5193
:1020A000E96E0E0EE926D8B0EA2AE92A000E556F2D
:1020B000EF6AE9065551EF6E4F51EA6E4E51E96EE7
:1020C0000D0EE926D8B0EA2A000EEF6E4F51EA6EE7
:1020D0004E51E96E100EE926D8B0EA2A000EEF6ED6
:1020E0004F51EA6E4E51E96E110EE926D8B0EA2A38
:1020F000E92A000E556FEF6AE9065551EF6E4F5110
:10210000EA6E4E51E96E130EE926D8B0EA2A000EA7
:10211000EF6E525308E04C51586F5251596F535162
:102120005A6F44EC08F04C2BE4D6072B1F0E071710
:102130004C6B040E4C6188D2020E5A6F9A0E586F87
:102140001A0E4C03F350596FF450576F58515927DA
:1021500057515A2359514E6F5A514F6F4F51EA6E92
:102160004E51E96E080EE926D8B0EA2AEF523CE05B
:102170004F51EA6E4E51E96E0B0EE926D8B0EA2AAD
:10218000EF6632D04F51EA6E4E51E96E080EE926E5
:10219000D8B0EA2AEF50586F4F51EA6E4E51E96EAF
:1021A000090EE926D8B0EA2AEE50596F040E5B6F8B
:1021B000560E5A6F53EC0AF04F51EA6E4E51E96ECB
:1021C000090EE926D8B0EA2AEE50586F584BEF2A8C
:1021D000E9065851EF6E4C51586F5651596F57518F
:1021E0005A6F44EC08F0BAD74F51EA6E4E51E96E7F
:1021F0000B0EE926D8B0EA2AEF5209E04F51EA6EF9
:102200004E51E96E0B0EE926D8B0EA2AEF064F517F
:10221000EA6E4E51E96E160EE926D8B0EA2AEE5063
:10222000566F565303E1EF52D8B4B8D04F51EA6E0F
:102230004E51E96E180EE926D8B0EA2AEE50546FD6
:10224000EF50556F010101EE60F0E95004015A6F43
:10225000EA505B6F4F51EA6E4E51E96E0C0EE92663
:10226000D8B0EA2AEF50586F596BD8905837593781
:1022700058515A2759515B235A51E96E5B51EA6E06
:10228000EE50566F5451565F5551EF58576F000E30
:102290005665576701D02ED057BF2CD04F51EA6EEC
:1022A0004E51E96E160EE926D8B0EA2AEE50596F63
:1022B000EF50800A586F5751800A585D02E156511D
:1022C000595D53E2020102EE9AF0E9501A0E040140
:1022D0004C03F350586FF450596F5851E926595137
:1022E000EA22160EE926D8B0EA2AEE50566FEF50D1
:1022F000576F3BD057AF39D04F51EA6E4E51E96E10
:10230000160EE926D8B0EA2AEE50586F581FEF1C77
:10231000596F582BD8B4592B5751800A5A6F5951BD
:10232000800A5A5D02E15851565D1FE2020102EE39
:102330009AF0E9501A0E04014C03F3505A6FF4500E
:102340005B6F5A51E9265B51EA22160EE926D8B096
:10235000EA2AEE505C6F5C1FEF1C5D6F5C2BD8B4FB
:102360005D2B5C51566F5D51576F56515427575135
:10237000586F555158235851556F4F51EA6E4E5171
:10238000E96E180EE926D8B0EA2AE92A5451586FA6
:102390005551EF6EE9065851EF6E29D0010101EE5B
:1023A00060F0E9500401586FEA50596F4F51EA6EDE
:1023B0004E51E96E0C0EE926D8B0EA2AEF50566F5E
:1023C000576BD8905637573756515827575159237E
:1023D0005851E96E5951EA6EEE505A6FEF505B6FEB
:1023E000D8905A375B375A51546F5B51556F05502F
:1023F000616F4F51EA6E4E51E96E150EE926D8B065
:10240000EA2A3F0EEF14626F596B06EC00F05A6F28
:102410004F51EA6E4E51E96E130EE926D8B0EA2A02
:102420005A51EF02F3505C6FF4505B6F606F5B3595
:1024300060335C335B3560335C334F51EA6E4E5131
:10244000E96E0E0EE926D8B0EA2AEE505425636FE5
:10245000EF505E6F55515E235C5163275E516023E0
:10246000030103EE42F0E95004014C51566F576BE3
:10247000563757375637573756375737F80E56159A
:10248000E9265751EA22E92A6051EF6EE9066351C5
:10249000EF6E4F51EA6E4E51E96E0D0EE926D8B03F
:1024A000EA2AEF50566F4F51EA6E4E51E96E0E0E0A
:1024B000E926D8B0EA2AEE505625576FD8B0EF2A51
:1024C00056BFEF06E9065751EF6E4F51EA6E4E5177
:1024D000E96E100EE926D8B0EA2AEF50586F0301D2
:1024E00003EE42F0E95004014C51566F576B5637DA
:1024F00057375637573756375737F80E5615E92698
:102500005751EA22070EE926D8B0EA2A516B5851F2
:10251000EF24506FD8B0512B58BF510751AF02D0A4
:10252000506B516BFF0E5065516701D004D051BF05
:1025300002D05069516B5051586F030103EE42F0C5
:10254000E95004014C51566F576B56375737563781
:10255000573756375737F80E5615E9265751EA229E
:10256000070EE926D8B0EA2A5851EF6E4F51EA6EAD
:102570004E51E96E110EE926D8B0EA2AEE50526F9C
:10258000EF50536F030103EE42F0E95004014C5148
:10259000566F576B56375737563757375637573763
:1025A000F80E5615E9265751EA22040EE926D8B04E
:1025B000EA2AEE505227EF5053235351E00802E12C
:1025C0005251000803E2526B200E536F200E535DF0
:1025D00002E1000E525D03E2526BE00E536F030105
:1025E00003EE42F0E95004014C51566F576B5637D9
:1025F00057375637573756375737F80E5615E92697
:102600005751EA22040EE926D8B0EA2AE92A5251A3
:10261000586F5351EF6EE9065851EF6E4F51EA6E05
:102620004E51E96E140EE926D8B0EA2AEF50566FE3
:102630004F51EA6E4E51E96E150EE926D8B0EA2ADE
:102640005651EF264C2B75D58192819481968198B5
:10265000819A829C829E8284828082824D6B030159
:10266000CE5303E0CE0704014D810301CF5303E0B5
:10267000CF0704014D8304014D0508E0020E4D63B0
:1026800001D008D0030E4D63120009D082908182E0
:10269000828E1200829281868188818A12008294C1
:1026A0008184828C120057510301046F120044513F
:1026B0000301036F120010B502D0136B108510B721
:1026C00002D0146B108710B902D0156B10892B0E35
:1026D000146101D00BD0146B0301E24BE32B040116
:1026E000132B030E136502D0010E136F040E476304
:1026F00003D013514E6F02D047514E6F1251616F8C
:102700001451626F516B06EC00F04C6F15514D6F18
:10271000AAEC0AF057514F6F02EC0CF0280E586FDC
:10272000D4EC00F0040E476303D013514E6F02D077
:1027300047514E6F4F6B02EC0CF0152B050E1561D7
:1027400001D01200156B142B500E586FD4EC00F012
:1027500012004451F66E4551F76E4651F86E400E28
:102760004A6F4A514B6F4A074B53D8B412000900C5
:102770004951EA6E4851E96E484B492BF550EF6ECE
:10278000F0D74E5303E00A0E4E6505D0130E576F77
:10279000F7EC07F012004E0524E0080E4E6301D05E
:1027A0003ED0090E4E6301D03FD0020E4E6301D0E1
:1027B00040D0030E4E6301D03FD0040E4E6301D0D3
:1027C00040D0050E4E6301D041D0060E4E6301D0BD
:1027D00042D0070E4E6301D043D00A0E4E63120062
:1027E00044D0576B010E586F17EC07F07F0E411560
:1027F000526F41AF03D0070E536F01D0536B41AFFF
:1028000002D0546B02D0070E546F556B77EC0BF06F
:10281000030E4F6FECEC00F00FEC0BF01200050E06
:10282000576FF7EC07F012000A0E576FF7EC07F03E
:10283000120035EC08F01200030E576FF7EC07F0AA
:102840001200080E576FF7EC07F012000D0E576FCD
:10285000F7EC07F01200110E576FF7EC07F01200BB
:10286000040E576FF7EC07F01200090E576FF7ECE4
:1028700007F0120009BF02D0116B098F0301040198
:1028800010B107D00301DA6BDB6BDE6BDF6B040189
:1028900010810301040110B307D00301DC6BDD6B71
:1028A000E06BE16B04011083030104014F5103014C
:1028B000DA27040150510301DB23020E04014E63A9
:1028C00005D08084116B010E516F12004E0508E196
:1028D00080940301DA6BDB6B010E0401116F0F6B47
:1028E00011531AE011051AE0020E116301D03BD01A
:1028F000030E116301D057D0040E116301D073D0C1
:10290000050E116301D08FD00A0E116301D0C0D023
:10291000140E116300D1F8D0516B12005EEC04F07C
:10292000596B040E5A6F5B6B5C6BFFEC03F0010E8E
:10293000596F040E5A6F5B6B5C6BFFEC03F0020E79
:10294000596F040E5A6F5B6B5C6BFFEC03F0030E68
:10295000596F040E5A6F5B6B5C6BFFEC03F0809455
:10296000020E116FD8D01B0E0301DB5D02E1580E81
:10297000DA5D04E2020E0401516F1200030E04013D
:10298000596F5A6B5B6B5C6BFFEC03F03BEC0CF02C
:1029900054510301DC6F040155510301DD6F030E37
:1029A0000401116FB8D01F0E0301DB5D02E1400E80
:1029B000DA5D04E2020E0401516F1200020E0401FE
:1029C000596F5A6B5B6B5C6BFFEC03F03BEC0CF0EC
:1029D00054510301DC27040155510301DD23040E8A
:1029E0000401116F98D0230E0301DB5D02E1280E74
:1029F000DA5D04E2020E0401516F1200010E0401BF
:102A0000596F5A6B5B6B5C6BFFEC03F03BEC0CF0AB
:102A100054510301DC27040155510301DD23050E48
:102A20000401116F78D0270E0301DB5D02E1100E67
:102A3000DA5D04E2020E0401516F12003BEC0CF06F
:102A400054510301DC27040155510301DD23D890C3
:102A5000DD33DC33D890DD33DC33DC51D66FDD5130
:102A6000D76F140ED65DD46FD6591408D75DD56FC5
:102A70000F0ED65DD86FD6590F08D75DD96F0A0EE5
:102A80000401116F0301DA51DE6FDB51DF6F43D0B8
:102A90000301DB51420802E1DA51680804E2140E36
:102AA0000401116F38D03BEC0CF054510301E06F7E
:102AB000040155510301E16F7F0EE0150401526FCF
:102AC000536B030E546F556B77EC0BF00301D5512C
:102AD000E15D02E1D451E05D09E2020E04010F6103
:102AE00005D0020E0F6F140E116F15D00301D951CE
:102AF000E15D02E1D851E05D0EE2010E04010F61DB
:102B00000AD0010E0F6F07D08084116B5EEC04F0C9
:102B1000010E516F1200020E0401516F1200596B29
:102B2000576B586B58B71200D890573753375937EF
:102B30005951546501D003D05451595F5781582BD6
:102B4000F1D70401546B829A8296536B080E53613D
:102B50000DD05453D890543782A802D0548101D05C
:102B60005491828682965329536FF0D75451556FF2
:102B700012008680010E0401506F90EC00F0330EBD
:102B8000AB6E200EA86E900E9C6E8696120004010D
:102B9000026701D01200056701D01200056BCCEC72
:102BA0000EF00253D8A412000301496B0201A26B7C
:102BB0000301516B0201BC6B0301596B0201D66B1F
:102BC0000301616B0201F06B27EC05F0050E0401B7
:102BD000586FD4EC00F0839E0A0E586FD4EC00F0CE
:102BE00010EC05F0050E586FD4EC00F010EC05F079
:102BF000050E586FD4EC00F01200A49EA49CF9ECD2
:102C000003F06B80F9EC03F0A49EA49CC00E6F6EE1
:102C1000F9EC03F0A49EA49C800E6F6EF9EC03F017
:102C2000A49EA49C6B84F9EC03F012000301F45100
:102C300004014C6F0301F55104014D6F1200030EA6
:102C40004E6101D012004D51EA6E4C51E96E576B46
:102C5000586B5751E9265851EA22EF504F6F4D51AA
:102C6000EA6E4C51E96E010E576F586B5751E926C9
:102C70005851EA22EF50516F4D51EA6E4C51E96EB6
:102C8000020E576F586B5751E9265851EA22EF5000
:102C9000526FC00E4F15506F50514F194F6F4F0567
:102CA00021E050BF0AD00301FB510401526301D05F
:102CB00002D00301FB630ED012000301FB5104019B
:102CC000526301D002D00301FB6304D004015253CC
:102CD000D8A412000401505305E174EC0EF05A53CD
:102CE000D8B412004F0502E05151416F4F05D8B4DE
:102CF00060D0040E4F6301D066D0050E4F6301D043
:102D000065D0060E4F6301D066D0070E4F6301D029
:102D10006DD0080E4F6301D06ED0090E4F6301D005
:102D200073D00A0E4F6301D074D00B0E4F6301D0E5
:102D300075D0100E4F6301D07AD0110E4F6301D0C1
:102D40007BD0120E4F6301D07CD0130E4F6301D0A5
:102D50007DD0200E4F6301D081D0210E4F6301D072
:102D60007DD0220E4F6301D079D0230E4F6301D066
:102D700075D0240E4F6301D071D0250E4F6301D062
:102D80006DD0280E4F6301D0C1D0300E4F6301D0FB
:102D9000C5D0310E4F6301D0CFD0340E4F6301D078
:102DA00009D1350E4F6301D0D5D0360E4F6302D115
:102DB000D9D05251576F5151586FBFEC0CF00301ED
:102DC000F24BF32BF7D035EC08F0F4D0030E586F2C
:102DD00052EC05F03FD0080E586F52EC05F0040E8F
:102DE000576F050E586F17EC07F034D0040E586F6C
:102DF00052EC05F02FD0C00E5015D8B4DBD00D0E1C
:102E0000586F52EC05F026D0110E586F52EC05F0B9
:102E100021D0020E586F52EC05F01CD0C00E501598
:102E2000D8B4C8D0090E586F52EC05F013D0060E76
:102E3000586F52EC05F00ED0050E586F52EC05F0AD
:102E400009D00A0E586F52EC05F004D0010E586FED
:102E500052EC05F05769F7EC07F0ACD050AFAAD0B0
:102E600005EC0BF05C51426F070E4F15576F010ECA
:102E7000586F5751FF0B04E0D8905837FF0FFAD71F
:102E8000585142134FA111D0800E0301C26F9E51C1
:102E9000C227EE0EC36F9F51C323360EC46FA051DD
:102EA000C423000EC56FA151C52304014FA311D047
:102EB000800E0301C66F9E51C627EE0EC76F9F514D
:102EC000C723360EC86FA051C823000EC96FA15189
:102ED000C923030E04014F1511E0800E0301CA6FD0
:102EE0009E51CA27EE0ECB6F9F51CB23360ECC6F6F
:102EF000A051CC23000ECD6FA151CD23040142512E
:102F00005C6FE3EC0AF0E7EC0AF054D050AF52D01B
:102F10005C6BE3EC0AF0E7EC0AF04CD050AF4AD01F
:102F20000AEC0BF05751426F42814251576F53ECFC
:102F300013F0E7EC0AF03ED050AF3CD00AEC0BF0B7
:102F40005751426F42914251576F53EC13F0E7ECE7
:102F50000AF030D050AF2ED0040E0301FC6F0FECFE
:102F60000BF028D050AF26D00301FB510401536F62
:102F7000030E546F8FEC15F05951556F555305E101
:102F80000D0E576FF7EC07F015D00301FB5104014C
:102F9000536F030E546F8FEC15F05951566F560551
:102FA00005E10C0E576FF7EC07F004D00B0E576FCE
:102FB000F7EC07F004014F05D8B412005151416FEE
:102FC00012000301F251F46FF351F56FF26BF36BE2
:102FD000120085B616D085B24CD0010E0401576F91
:102FE00053EC13F08CEC0EF00A0E506F90EC00F0E6
:102FF00085B43FD0020E576F53EC13F08CEC0EF0FB
:1030000038D085B20DD085B40BD00401446B57EC99
:1030100013F08CEC0EF00A0E506F90EC00F029D0FB
:1030200085B21ED0020E0401446F57EC13F08CECF5
:103030000EF00A0E506F90EC00F085B21AD085B4F5
:10304000FCD785A4FED712EC07F05729446F57EC44
:1030500013F08CEC0EF00A0E506F90EC00F0EDD7F0
:1030600085B41200010E0401446F57EC13F08CEC90
:103070000EF0E7EC0AF012000401446BAC0E456F51
:10308000010E466F476B030E496F020E486FA9ECA5
:1030900013F01200030102510401446F1200F29E6A
:1030A000720ED36E010E0401506F90EC00F09B8CF9
:1030B000F30E926E0C0E806EC10E936E816A100E2E
:1030C000946E070E826E760E956E090E836E96686C
:1030D000846A0E0E976E856EF60E986E010E866EE1
:1030E000C26A2E0EC16EC18EC088DC0EC16EC2686F
:1030F000C098C280C18CC282C2B2FED7C19C9E9CC5
:103100006C6A130E6E6E080E6C6E6B6A6D6AA49E0E
:10311000A49C6C8A420ED56E850ED66ED58EF28A30
:103120001200166701D012004C512427140E24619E
:1031300001D004D0252B140E245FF8D71D51256132
:1031400001D01200256B1E0520E0060E1E6301D083
:103150001CD0070E1E6301D018D0080E1E6301D0CC
:1031600014D0020E1E6301D097D0030E1E6301D04F
:103170001200040E1E6301D029D1050E1E6301D07A
:1031800098D11E53D8B43AD212001B511C6F1A05A5
:1031900006E11B2B060E1B6306D01A6B04D01B071F
:1031A00002E1010E1A6F00EE59F0E9501C51536F05
:1031B000546B5351E9265451EA22EF50556F00EEFB
:1031C00059F0E9501B51516F526B5151E926525140
:1031D000EA225551EF6E030103EE90F0E95004012D
:1031E0001C51536F546B5351E9265451EA22EF504E
:1031F000556F030103EE90F0E95004011B51516F2C
:10320000526B5151E9265251EA225551EF6E03019A
:1032100003EE97F0E95004011C51536F546B535166
:10322000E9265451EA22EF50556F030103EE97F05F
:10323000E95004011B51516F526B5151E926525113
:10324000EA225551EF6E00EE59F0E9501C51516FD2
:10325000526B5151E9265251EA22000EEF6E0301E2
:1032600003EE90F0E95004011C51516F526B515123
:10327000E9265251EA22000EEF6E030103EE97F0A9
:10328000E95004011C51516F526B5151E9265251C2
:10329000EA22000EEF6E12002207215307E02105FB
:1032A000D8B479D0020E216312008CD005EC0BF05B
:1032B0005C51236F050E596F5A6B23A103D0040E86
:1032C0005B6F01D05B6B5C6BFFEC03F0040E596F1E
:1032D0005A6B23A303D0040E5B6F01D05B6B23A357
:1032E00003D0030E5C6F01D05C6BFFEC03F0030EA8
:1032F000596F23A503D0040E5A6F01D05A6B23A532
:1033000003D0040E5B6F01D05B6B5C6BFFEC03F0D2
:10331000020E596F23A703D0040E5A6F01D05A6BC7
:103320005B6B23A703D0040E5C6F01D05C6BFFECDA
:1033300003F0010E596F23A903D0020E5A6F01D07A
:103340005A6B23A903D0050E5B6F01D05B6B23A9D9
:1033500003D0020E5C6F01D05C6BFFEC03F0596B85
:1033600023AB03D0070E5A6F01D05A6B5B6B5C6BBB
:10337000FFEC03F0060E596F5A6B5B6B3F0E231583
:1033800002E05C6B02D0070E5C6FFFEC03F0010EF5
:10339000216F226F12002253D8A41200526B536B7C
:1033A000546B556B77EC0BF0020E216F40EC0AF07A
:1033B0001F0E6015226F516B222BD8B4512BD89061
:1033C000223712002253D8B4216B120059504D6F8E
:1033D0000301905104014E6F0301975104014F6F97
:1033E000506B060E50615BD000EE59F0E950505121
:1033F000536F546B532BD8B4542B5351E92654516B
:10340000EA22EF50556F00EE59F0E9505051516FDC
:10341000526B5151E9265251EA225551EF6E030188
:1034200003EE90F0E95004015051536F546B532B4D
:10343000D8B4542B5351E9265451EA22EF50556F1A
:10344000030103EE90F0E95004015051516F526BAB
:103450005151E9265251EA225551EF6E030103EE14
:1034600097F0E95004015051536F546B532BD8B46B
:10347000542B5351E9265451EA22EF50556F030162
:1034800003EE97F0E95004015051516F526B5151C6
:10349000E9265251EA225551EF6E502BA2D74D51D9
:1034A0005F6E4E510301966F04014F5103019D6FF2
:1034B000120020071F531AE01F0525E0020E1F63AC
:1034C00001D031D0030E1F6301D03DD0040E1F6325
:1034D00001D049D0050E1F6301D055D0060E1F63E1
:1034E00001D068D0070E1F6312007AD0060E596F04
:1034F000010E5A6F5B6B5C6BFFEC03F0320E206FBA
:10350000010E1F6F12002053D8A41200050E596F30
:10351000010E5A6F5B6B5C6BFFEC03F0320E206F99
:10352000020E1F6F12002053D8A41200040E596F10
:10353000010E5A6F5B6B5C6BFFEC03F0320E206F79
:10354000030E1F6F12002053D8A41200030E596FF0
:10355000010E5A6F5B6B5C6BFFEC03F0820E206F09
:10356000040E1F6F12002053D8A41200020E596FD0
:10357000040E5A6F5B6F5C6FFFEC03F0030E206F5D
:10358000050E1F6F12002053D8A41200020E596FAF
:103590005A6B5B6B5C6BFFEC03F0010E596F040E12
:1035A0005A6F5B6F5C6FFFEC03F0030E206F060E2B
:1035B0001F6F12002053D8A41200010E596F5A6BCE
:1035C0005B6B5C6BFFEC03F0596B040E5A6F5B6F27
:1035D0005C6FFFEC03F0030E206F070E1F6F1200ED
:1035E0002053D8A41200596B5A6B5B6B5C6BFFECD9
:1035F00003F0120E206F040E1F6F12005EEC04F039
:10360000166B12000301E26BE36B040146510301E8
:10361000E35D04E1040145510301E25DD8B012000D
:1036200004014451476F5BEC13F0EFD74451391B51
:1036300045513A1B46513B1B3C2B3B51391B3C51DE
:10364000391B39513A253A6F3A51476FD890473173
:103650003B2739513B1B1200C26A2E0EC16EC18E30
:10366000C088DC0EC16EC268C098C280320E0401F0
:10367000586FD4EC00F0C18CC282C2B2FED7C19C9C
:103680009E9C120004010F514C6F12002F6B326B85
:103690002D050EE1EA0E0301E75D02E1600EE65D35
:1036A00014E204014C510301E627D8B0E72B0DD0FA
:1036B000EA0E0301E95D02E1600EE85D06E2040145
:1036C0004C510301E827D8B0E92B85B215D004018D
:1036D0002D5325E10A0E0301E865E96701D01FD0EB
:1036E000010E04012E6F0301E66BE76B010E04016E
:1036F0002F6F2E512D6F13D004012D0510E10A0EEE
:103700000301E665E76701D00AD004012E6B0301CF
:10371000E86BE96B020E04012F6F2E512D6F04012F
:1037200030050EE1EA0E0301EB5D02E1600EEA5D99
:1037300014E204014C510301EA27D8B0EB2B0DD061
:10374000EA0E0301ED5D02E1600EEC5D06E20401AC
:103750004C510301EC27D8B0ED2B85B415D00401F2
:10376000305325E10A0E0301EC65ED6701D01FD04F
:10377000010E0401316F0301EA6BEB6B010E0401D2
:10378000326F3151306F13D00401300510E10A0E51
:103790000301EA65EB6701D00AD00401316B030134
:1037A000EC6BED6B020E0401326F3151306F04018E
:1037B0004C510301EE27D8B0EF2B0401335312E034
:1037C000330550E0050E336301D06AD0020E336337
:1037D00001D076D0030E336301D0C7D0040E33631B
:1037E00028D114D12E0511E1090E0301E75D04E192
:1037F000C40EE66101D00AD009E30401345306E1A6
:103800008CEC0EF0010E346F01D0346B020E04010B
:103810002F631DD0090E0301E75D02E1C40EE65DD2
:103820000AE2010E0401336F0301EE6BEF6B010E30
:103830000401356F14D0020E0401336F0301EE6BE7
:10384000EF6B0401386B000E376B366F08D0020E39
:10385000326305D0050E336F0301EE6BEF6B04018D
:103860004D6B12000301EF51040802E1EE51B00864
:103870000DE2040135514E6FC1EC13F00401336BBE
:103880000301FC6B020E04014D6F1200020E0401D5
:103890002F63CFD00301EE6BEF6B0401352BC9D042
:1038A000020E0301FC6F0FEC0BF0010E04014E6FD2
:1038B0004F6B506B3AEC14F0336B020E4D6F1200ED
:1038C0000301E951ED5D02E1E851EC5D05E2EC51E7
:1038D000F06FED51F16F04D0E851F06FE951F16FE5
:1038E000F1510B0802E1F051B80810E2030E040197
:1038F000336F8CEC0EF00301EE6BEF6B0401386B51
:103900000301E86BE96BEC6BED6B93D0020E0401E5
:103910002F6309D0D890363736810301EE6BEF6BF9
:103920000401382B0AD0020E326307D0D890363704
:103930000301EE6BEF6B0401382B36AF03D0010EA1
:103940004E6F02D0020E4E6F7F0E36154F6F02EC97
:103950000CF0080E38636DD0030E336F386B030123
:10396000EE6BEF6B8CEC0EF064D00301E951ED5D72
:1039700002E1E851EC5D05E2EC51F06FED51F16FC1
:1039800004D0E851F06FE951F16FF1510B0802E1F9
:10399000F051B8080DE2040E0401336F8CEC0EF008
:1039A0000301EE6BEF6BE86BE96BEC6BED6B41D0F9
:1039B000020E04012F6309D0D890373737810301F5
:1039C000EE6BEF6B0401382B0AD0020E326307D086
:1039D000D89037370301EE6BEF6B0401382B37AF0C
:1039E00003D0010E4E6F02D0020E4E6F7F0E3715C0
:1039F0004F6F02EC0CF0080E38631BD0040E336FCF
:103A00008CEC0EF00301EE6BEF6B13D037514E6F61
:103A10000301FB5104014F6F3651506FA7EC0EF0BC
:103A20000301FC6B0FEC0BF00401336B020E4D6FC6
:103A30001200010E04014D6F12005C6B5D6B5E6B3A
:103A40005F6B5E6B5F6B50515403F3505C6FF450CF
:103A50005D6F51515403F3505D27F4505E23D8B08D
:103A60005F2B52515403F3505E27F4505F235351A0
:103A70005403F3505F2750515503F3505D27F45022
:103A80005E23D8B05F2B51515503F3505E27F4509D
:103A90005F2352515503F3505F2750515603F350A3
:103AA0005E27F4505F2351515603F3505F27505166
:103AB0005703F3505F27120009BB02D00D6B098B2F
:103AC00009BD02D00E6B098D809682A863D08086D6
:103AD00083900D5326E0A1EC15F04D51EA6E4C5148
:103AE000E96E0E51516F526B5151E9265251EA2243
:103AF0005551EF6E0E2B0E510D6501D047D0810E42
:103B0000556FCA0E566FE8EC07F083804F51EA6E8E
:103B10004E51E96E0E51EF6E0E6B0D6B020E516F32
:103B20001200A1EC15F05551506F000E506507D0F2
:103B3000140E506104D050510D6F0E6B27D083804E
:103B4000080E556F820E566FE8EC07F0810E556F28
:103B5000CA0E566FE8EC07F01F0E556F800E566FB9
:103B6000E8EC07F05F0E556F800E566FE8EC07F03B
:103B7000880E556F820E566FE8EC07F0830E556F76
:103B8000CA0E566FE8EC07F0516B12008380010EED
:103B9000516F12008086516B12008396050E04014E
:103BA000506F90EC00F08386050E506F90EC00F0A3
:103BB000810E556FCA0E566FE8EC07F0830E556FF5
:103BC000CA0E566FE8EC07F01F0E556F800E566F49
:103BD000E8EC07F0D00E556FA70E566FE8EC07F033
:103BE000080E556F820E566FE8EC07F0A10E556F68
:103BF000940E566FE8EC07F0600E556F980E566FF6
:103C0000E8EC07F0280E556F820E566FE8EC07F0CF
:103C1000040E506F90EC00F0880E556F820E566FB8
:103C2000E8EC07F05F0E556F800E566FE8EC07F07A
:103C3000810E556FCA0E566FE8EC07F0830E556F74
:103C4000CA0E566FE8EC07F0838012004FEC18F0B4
:103C50003CEC18F0E9EC17F0FDEC15F02CEC1BF047
:103C6000CDEC1DF0B9EC15F05EEC04F0010E4F6FD9
:103C7000ECEC00F0010E4E6F12EC07F0400E571105
:103C80004F6F02EC0CF0640E586FD4EC00F0010E94
:103C90004E6F4F6B02EC0CF0010E4F6FECEC00F02E
:103CA000010E4E6F0AEC0BF0400E57114F6F02ECF5
:103CB0000CF0640E586FD4EC00F0010E4E6F4F6B99
:103CC00002EC0CF0010E4F6FECEC00F04AEC18F037
:103CD00044510301FB6FFBAF04D0010E04014E6F92
:103CE00003D0020E04014E6F7F0E0301FB15040189
:103CF0004F6F02EC0CF0040E4F6FECEC00F04E6BCB
:103D00004F6B02EC0CF012EC07F05729446F0301E3
:103D1000FB510401456F550E466F16EC1BF0040E67
:103D2000446F2C0E456F010E466F02EC1BF0F28EB5
:103D3000FC6B0FEC0BF0000E04014C6F03019E5165
:103D400004014C27DD0E4D6F03019F5104014D23EB
:103D50006D0E4E6F0301A05104014E23000E4F6FF4
:103D60000301A15104014F2340EC0AF06051506F50
:103D7000516B526B536B200E546F4E0E556F566B3A
:103D8000576B1DEC1DF05C510301A66F04015D51E2
:103D90000301A76F04015E510301A86F04015F5185
:103DA0000301A96F04014C510301A62704014D51E1
:103DB0000301A72304014E510301A82304014F511D
:103DC0000301A923F29A0301FA51F86FFA6BF28A00
:103DD000F85104014C6F4D6B4E6B4F6B4C5103010E
:103DE0009E2704014D5103019F2304014E510301FD
:103DF000A02304014F510301A123FC510401436F8F
:103E00000301FC530CE0020EFC6301D0C2D0040E8F
:103E1000FC6301D0ECD0FC05D8B437D141D1F851C6
:103E200004014C6F46EC1BF04D0508E1010E030147
:103E3000FC6F0FEC0BF00401026B32D1000E4D6FE2
:103E4000450E4C6F030E4F6FFE0E4E6F5CEC1DF077
:103E5000020E51630CD0B7EC0CF0000E4D6F450E06
:103E60004C6F0301FE5104014E6F1FEC16F003016D
:103E7000FC510401436301D002D00301FC6301D073
:103E80000FD1C00E0401446F0301A2510401442765
:103E9000D40E456F0301A35104014523010E466F63
:103EA0000301A45104014623000E476F0301A551ED
:103EB0000401472340EC0AF06051486F496B4A6B9C
:103EC0004B6B483749374A374B37483749374A37BA
:103ED0004B37483749374A374B37F80E4817445164
:103EE00048274551492346514A2347514B23030153
:103EF000A15104014B5D0EE10301A05104014A5D93
:103F000009E103019F510401495D04E103019E5150
:103F10000401485DD8B0C4D0010E4E6F0301FB51BF
:103F200004014F6F05EC0BF05C51506FA7EC0EF0E5
:103F300003019E51A26F9F51A36FA051A46FA15185
:103F4000A56FE1EC17F0FF5310E016EC16F00C0E25
:103F50004C654D671BD00301FF6B0401026716D04F
:103F60000F0E576FF7EC07F011D016EC16F04D510D
:103F7000140E4C6101D00AE0010E0301FF6F040131
:103F8000026704D0140E576FF7EC07F00FEC0BF03C
:103F900087D004014E6B0301F85104014F6F506B41
:103FA0003AEC14F05105D8A47BD042EC1BF04C53F2
:103FB00006E04C0509E0020E4C630FD00AD0130E48
:103FC000576FF7EC07F009D0050E576FF7EC07F0C5
:103FD00004D0120E576FF7EC07F00301FC6B020ED2
:103FE0000401576F050E586F17EC07F059D0040104
:103FF00000510301FC6301D002D00401006305D02D
:104000000301AA6BAB6BAC6BAD6B0301F851040100
:104010004C6F4D6B4E6B4F6B4C510301AA27040143
:104020004D510301AB2304014E510301AC230401A4
:104030004F510301AD23AD51000808E1AC51010817
:1040400005E1AB51D40802E1AA51C008D8A0FC6B2D
:10405000000E04014D6F450E4C6F030E4F6FFE0EA8
:104060004E6F5CEC1DF0020E51630CD0B7EC0CF0FF
:10407000000E4D6F450E4C6F0301FE5104014E6F53
:104080001FEC16F00FEC0BF00BD0F85104014C6F45
:1040900046EC1BF04D0504E00301FC6B0FEC0BF04C
:1040A000C7EC15F00301F85104014C6F91EC18F0C6
:1040B0000301FD53D8B479D0E00E04014C6F030125
:1040C000A65104014C27930E4D6F0301A751040123
:1040D0004D23040E4E6F0301A85104014E23000E20
:1040E0004F6F0301A95104014F230301A1510401A2
:1040F0004F5D0EE10301A05104014E5D09E1030192
:104100009F5104014D5D04E103019E5104014C5D8A
:104110005EE20301FD6B000E0401586F03019E5126
:1041200004015827DD0E596F03019F5104015923E3
:104130006D0E5A6F0301A05104015A23000E5B6FEC
:104140000301A15104015B2340EC0AF06051506F60
:10415000516B526B536B200E546F4E0E556F566B56
:10416000576B1DEC1DF05C510301A66F04015D51FE
:104170000301A76F04015E510301A86F04015F51A1
:104180000301A96F040158510301A62704015951E5
:104190000301A72304015A510301A82304015B5121
:1041A0000301A9230FEC0BF012D0A151A95D08E186
:1041B000A051A85D05E19F51A75D02E19E51A65D5A
:1041C00006E2010EFD6F35EC08F00FEC0BF0030179
:1041D000FC510401006FF6D503019E6B9F6BA06B31
:1041E000A16BF86BA26BA36BA46BA56B0401016BB5
:1041F0000991030104010993030104010995099739
:104200000301040109990301AE6BAF6BB06BB16B95
:10421000850E0101606F616B8D0E626F636B960E90
:10422000646F656B9F0E666F676BA80E686F696B36
:10423000B20E6A6F6B6BBD0E6C6F6D6BC80E6E6FDE
:104240006F6BD40E706F716BE10E726F736BEE0E4D
:10425000746F756BFC0E766F776B0B0E786F010EBB
:10426000796F1B0E7A6F010E7B6F2C0E7C6F010E27
:104270007D6F3E0E7E6F010E7F6F510E806F010EBF
:10428000816F650E826F010E836F7A0E846F010E4F
:10429000856F910E866F010E876FA90E886F010ED4
:1042A000896FC20E8A6F010E8B6FDD0E8C6F010E4F
:1042B0008D6FF90E8E6F010E8F6F170E906F020EBD
:1042C000916F370E926F020E936F590E946F020E1C
:1042D000956F7D0E966F020E976FA30E986F020E6C
:1042E000996FCB0E9A6F020E9B6FF50E9C6F020EAC
:1042F0009D6F220E9E6F030E9F6F520EA06F030ED6
:10430000A16F850EA26F030EA36FBA0EA46F030EEA
:10431000A56FF30EA66F030EA76F2F0EA86F040EE6
:10432000A96F6F0EAA6F040EAB6FB20EAC6F040EC6
:10433000AD6FFA0EAE6F040EAF6F460EB06F050E86
:10434000B16F960EB26F050EB36FEB0EB46F050E24
:10435000B56F450EB66F060EB76FA50EB86F060E99
:10436000B96F0A0EBA6F070EBB6F750EBC6F070EE2
:10437000BD6FE60EBE6F070EBF6F5F0EC06F080EFB
:10438000C16FDE0EC26F080EC36F650EC46F090EDB
:10439000C56FF40EC66F090EC76F8C0EC86F0A0E7C
:1043A000C96F2C0ECA6F0B0ECB6FD60ECC6F0B0ED7
:1043B000CD6F8B0ECE6F0C0ECF6F4A0ED06F0D0EE1
:1043C000D16F140ED26F0E0ED36FEA0ED46F0E0E95
:1043D000D56FCD0ED66F0F0ED76FBE0ED86F100EE5
:1043E000D96FBD0EDA6F110EDB6FCB0EDC6F120EC4
:1043F000DD6FE90EDE6F130EDF6F180EE06F150E26
:10440000E16F590EE26F160EE36FAD0EE46F170EFB
:10441000E56F160EE66F190EE76F940EE86F1A0E31
:10442000E96F280EEA6F1C0EEB6FD50EEC6F1D0EB8
:10443000ED6F9B0EEE6F1F0EEF6F7C0EF06F210E77
:10444000F16F7A0EF26F230EF36F960EF46F250E56
:10445000F56FD30EF66F270EF76F310EF86F2A0E39
:10446000F96FB30EFA6F2C0EFB6F5B0EFC6F2F0E05
:10447000FD6F2C0EFE6F320EFF6F280E0201006FD3
:10448000350E016F510E026F380E036FAB0E046FC5
:104490003B0E056F370E066F3F0E076F000E056E61
:1044A000300E0301626F640E636F660E646F690EF7
:1044B000656F6A0E666F6C0E676F6D0E686F740EB7
:1044C000696F760E6A6F770E6B6F7E0E6C6F2B0EB8
:1044D0006D6F3D0E6E6F6F6B0401099B099D099F07
:1044E0000301040110910301040110930301B66B51
:1044F000B76BB86BB96BD46BD56BD66BD76BD86B0E
:10450000D96B04010F6B109510971099010E126F63
:104510000301E26BE36B020E706F030E786F040E03
:10452000806F596A5A6A5B6A5C6A5D6A5E6A5F6A32
:10453000906B916B926B936B946B956B966B976B87
:10454000986B996B9A6B9B6B9C6B9D6B0401176BC3
:10455000186B196B1A6B1B6B1C6B1D6B1E6B166B30
:104560001F6B206B216B226B236B246B256B266BDF
:10457000109B03010401109D0301E46BE56B040132
:10458000276B2D6B306B010E396F320E3A6F030EB5
:104590003B6F010E3C6F010E3D6F320E3E6F030EFE
:1045A0003F6F010E406F0301F26BF36BF46BF56B21
:1045B0000001000EEA6E600EE96EFF0E01015F6FF2
:1045C000EE6A5F2FE0EF22F0800E0301C26FCB0E88
:1045D000C36FA40EC46FC56B800EC66FCB0EC76FC2
:1045E000A40EC86FC96B800ECA6FCB0ECB6FA40E22
:1045F000CC6FCD6B26EF1EF0EACF01F0E9CF02F0D1
:10460000F4CF03F0F3CF04F0F2A419D0F29A850EA0
:10461000D66E0301F92B080EF96101D002D0F96BB7
:10462000FA2B0401025303E024EC01F00CD02753D1
:1046300003E072EC02F007D0CFEC02F004D08292DB
:1046400081868188818AF294F28A04C0F3FF03C0D4
:0C465000F4FF02C0E9FF01C0EAFF110006
:020000040001F9
:10AC00000100000000000000000000000000000043
:10AC10000000000000000000000000000000000034
:10AC20000000000000000000000000000000000024
:10AC30000000000000000000000000000000000014
:10B3600000000000000000000000000000000000DD
:10B3700000000000000000000000000000000000CD
:10B3800000000000000000000000000000000000BD
:10B3900000000000000000000000000000000000AD
:10B3A000000000000000000000000000000000009D
:10B3B0007F000000007F7F0000007F7F7F00007F14
:10B3C0007F7F7F007F7F7F7F7F007F7F7F7F000089
:10B3D0007F7F7F0000007F7F000000007F60703F64
:10B3E000023C0303304848037B282808040C1C0C4B
:10B3F00004003E1C080000081C3E0010181C181019
:10B40000000000000000005F0000000700070014BB
:10B410007F147F14242A7F2A12231308646236497A
:10B420005522500005030000001C2241000041226B
:10B430001C00082A1C2A0808083E08080050300092
:10B4400000080808080800606000002010080402D6
:10B450003E5149453E00427F4000426151494621EC
:10B4600041454B311814127F1027454545393C4A58
:10B4700049493001710905033649494936064949A8
:10B48000291E00363600000056360000000814223F
:10B490004114141414144122140800020151090625
:10B4A000324979413E7E1111117E7F494949363E2C
:10B4B000414141227F4141221C7F494949417F0945
:10B4C0000901013E414151327F0808087F00417F58
:10B4D00041002040413F017F081422417F4040400D
:10B4E000407F0204027F7F0408107F3E4141413EBD
:10B4F0007F090909063E4151215E7F091929464607
:10B500004949493101017F01013F4040403F1F202F
:10B5100040201F7F2018207F6314081463030478E1
:10B520000403615149454300007F41410204081072
:10B530002041417F0000040201020440404040409D
:10B54000000102040020545454787F4844443838A1
:10B5500044444420384444487F3854545418087EA6
:10B56000090102081454543C7F0804047800447D07
:10B5700040002040443D00007F10284400417F40AF
:10B58000007C041804787C08040478384444443867
:10B590007C14141408081414187C7C08040408484B
:10B5A00054545420043F4440203C4040207C1C2004
:10B5B00040201C3C4030403C44281028440C505053
:10B5C000503C4464544C44000836410000007F0065
:10B5D00000004136080008082A1C08081C2A080830
:10B5E00070292429707028252870702A252A702037
:10B5F0005456557820545554787F7F4949493D42E7
:10B6000042423D304A484A305C322A261D18643C8A
:10B6100026183D4040403D384240227815167C16A1
:10B620001554341C161518041820184A5555552958
:10B630007E097F09093454385458487E4949427F6D
:10B6400005157A501C3E3E3E1C1C2222221C081C62
:10B650003E1C08081422140800007700000E513127
:10B660001111605048447E40444A514040514A4480
:10B6700040103854101F04027F020410207F201055
:10B680000000000000705070000000000F01014039
:10B690004078000010204000000030300000050518
:10B6A00045251F0000000000044434140C201078CD
:10B6B000040018084C38004828187C08087C082822
:10B6C0001840484878405454547C0018005840387A
:10B6D000080808080801413D09072010F804020E77
:10B6E0000243221E42427E424222120A7F02423F0F
:10B6F00002423E0A0A7F0A0A044341211F04034210
:10B700003E02414141417F024F221F024A4A4020EE
:10B710001C4222122A46023F424A46034440201E4F
:10B7200008464A321E0A4A3E09080E004E201E04F0
:10B73000453D0504007F08100044241F04044042D6
:10B74000424240422A122A0622127B162200402040
:10B750001F0078000204783F4444444402424222DD
:10B760001E040204083032027F0232021222520EFC
:10B77000002A2A2A40382422207040281028060255
:10B780003E4A4A4A047F04140C4042427E404A4AE0
:10B790004A4A7E040545251C0F40201F007C007E80
:10B7A00040307E402010087E4242427E0E024222FD
:10B7B0001E42424020180204010200070507000053
:10B7C000384448304020555455787C2A2A2A142879
:10B7D000545444207E1010081E38444C54247814CD
:10B7E00012120C085454543C20403C040402020041
:10B7F00007002040443D00050205000018247E2477
:10B8000010147F5440407C0905057838454445387C
:10B810007E1412120C0C1212147E3C4A4A4A3C301E
:10B820002810281858640464583C4140217C635512
:10B83000494141443C047C4445291129450C505060
:10B84000503C0A0A7E0A09443C1414747C141C14EB
:10B850007C08082A080800000000007F7F7F7F7FA7
:10BB60001E4004B4001C900374C00EE0013DC007E9
:10BB7000FC0020100484C010200245C00A0002020C
:10BB8000000008FF09000B25070F080000088009C6
:10BB9000000B25070F080000000000000000000057
:10BBA00000000000001306801D03C0840100000097
:10BBB0000000000000007B0A803505C09E020000E6
:06BBC0000000000000007F
:10BBE0001E4004CC00213004884011300247000977
:10BBF000240125B00498401370024FA00B000202EC
:10BC0000000008FF09010704090201800B25074015
:10BC100008000008FF0901070209010B2507400879
:10BC2000000000000000000000000000000000EB29
:10BC3000040000000000000000000000008B08006D
:0ABC400000000000000000000000FA
:10BC600021E0050081290006DE802258048CA01105
:10BC70003882470009228124980494E014EC02657C
:10BC800000020200212000100202002120181008EA
:10BC9000FF09030701090201900B3105A002F00022
:10BCA00008FF090307020B31017005D0070202F8F3
:10BCB00004010008FF0903070209020B31028E008C
:10BCC000087F09020B2503000A16060402FF000381
:10BCD000000903085F07010902060502FA0B3D0788
:10BCE000030B3807030B35070300000000000000BA
:10BCF00000000000CB040020192C23000000009657
:10BD00000900CB08000000EB0D80F400A407203DE3
:10BD100000E901480F407A00D20300000000000053
:10BD200000000000C032012019002B555261A5947B
:10BD30005458292515564A498515535469C5145533
:0EBD40005A314595564C51A5155354690100D2
:10BD600045200CC88140E00832812BE805D0601DD9
:10BD7000008485C0101A824378081021250885ACFC
:10BD8000B016FC0264180DAF61373487EFB01EEEB9
:10BD9000C38078101BE244CC881FB124AEC49878CD
:10BDA000137BE25000020A0D40B0D040020A0D643D
:10BDB000B0D040020A0D44B0D000080A8DA1B0D026
:10BDC0001C08FF09030701090201800B3105A002CD
:10BDD000F00008FF09030B310170070A0800040195
:10BDE0000008F60903070209020B31029E0008F061
:10BDF000090202930B3D02FA0008FF09030701093B
:10BE0000000B31058001700608070608000008F6DF
:10BE10000211090003800B3D0A1702F60008D6093B
:10BE200003070409020B2503000A16060402F200A8
:10BE3000085F0300090307010902060502FA0B3D2A
:10BE400007030B3807030B3507030008FF09030737
:10BE50000409020B310580011006080708080000DC
:10BE600008FF090201800B1902F200000000000027
:10BE7000C31D80F50EC0700760BD0330DC61BD03DB
:10BE800030DC01D8ED30DC0100C31D763B0C779827
:10BE9000ED008C7698ED30DA61B403002C7600006A
:10BEA0000000B31D80D90E00B0DA61B603B0DD61C9
:10BEB000B90330DC0198ED00008B1D000018ED0087
:10BEC00000C070070000B63B000000EB1D80E10ED3
:10BED000C06C87E10EC062070000000000008B19F3
:10BEE000000018CD0000C070060000B6330000004E
:10BEF000EB1980E10CC06C86E10CC062060000000A
:10BF00000000000000000000000000000000000031
:10BF100000000000000000000000002B29000018B5
:10BF20004B0100C04A0A0000C6520000002B290045
:10BF300000D8480100C0500A0000C65200000000AE
:10BF400000000000000000000000000000000000F1
:10BF500000000000000000000000000000000000E1
:10BF600000000000000000000000000000000000D1
:10BF700000000000000000000000000000000000C1
:10BF800000000000000000000000000000000000B1
:10BF900000000000000000000000000000000000A1
:10BFA0000000000000000000000000000000000091
:10BFB0000000000000000000000000000000000081
:10BFC0000000000000000000000000000000000071
:10BFD0000000000000000000000000000000000061
:10BFE0000000000000000000B0DE000080F5060048
:08BFF00000AC37000060BD0148
:10C020001C0004D4001B700370400ED0013B80073D
:10C03000F4001FF0038040101002430002000000D3
:10C0400008FF0903070109000B310580017006088C
:10C0500007060800000000000000000000000000CB
:10C06000000000EB050000000000000000000000E0
:10C0A0001C0004D4001B700370400ED0013B8007BD
:10C0B000F4001FF003804010100243000200000053
:10C0C00008FF0903070109000B310580017006080C
:10C0D000070A080000000000000000000000000047
:10C0E0000000008B050000000000000000000000C0
:10C120001E4004BC0021D0049CC013800251400A70
:10C130004C012A5005ACC015C00259401000020243
:10C140000000088F032209020B3101D002FD000814
:10C15000FF09030B250703090201300608056802E1
:10C16000F0000880036009000B4902FA000000009B
:10C17000000000000000000000ABC568B1598C163B
:10C180009BC564B1594C168BC564B1580C168BC550
:10C1900060B1570C167BC55CB1566C26C0660200B8
:10C1A0000000ABCD68B3D98C369BCD64B3D94C3687
:10C1B0008BCD64B3D80C368BCD60B3D70C367BCD2A
:08C1C0005CB3D6000000000092
:10C1E00046200DE88144600942812D2806D4E01DD7
:10C1F000108487001242824818092441272C05AD7B
:10C20000D016008364380DB3E1372C07EF001F020E
:10C210008484201136A2485C8931F126F6C4A198A5
:10C22000149F6255DC0A02000040B0D800068C0D55
:10C2300080D0D8000A8E0DC0F0D8000E900D0011ED
:10C24000D90012920D0000000008FF090307010940
:10C250000201900B2505A002F00008FF09030B3135
:10C2600001700708080004010008FF09030702091C
:10C27000020B31029E0008F0090202930B3D02FA04
:10C280000008FF0903070109000B31058001700652
:10C2900008070608000008FF0211090003800B319F
:10C2A0000A1702FD00089F09020B2503800A1407E4
:10C2B000BF02FE00085F030009030701090206052B
:10C2C00002FA0B3D07030B3807030B350703000881
:10C2D000FF0903070409020B310580011006080756
:10C2E000080800000878090201800B1902F800080C
:10C2F000AF0903070109020B190130075802FF00BB
:10C3000000000000000000000000000000D8ED86E2
:10C31000BBE96EBC9BEFF6BB050F231E000000803F
:10C320000D0F00000000002C780000231E0000000C
:10C33000800D0F0000000000000000000000B0E1D0
:10C340000118F1006C7800163C00FB1D00F31D0085
:10C3500000D8EF008C77000060BA0330DC010000E9
:10C36000231E0000D8F0006C78000000000060C1BF
:10C370000300231E000000800D0FC0860760C1036C
:10C38000B0DF0198F1000000000000000000000094
:10C39000000000000000000000000000000000009D
:10C3A00000000000000000000000003B2D00000025
:10C3B0000000D869012CB500B65A00732D000000AA
:10C3C00000000000732D80C116C0640B60B0050032
:10C3D0000000000000000030D902D86C018CB500CC
:10C3E000000000000000000030D902D86C01ECB45D
:10C3F00000000000000000003B2D80A516C0560B79
:10C4000060AE0500000000000000732D80C116C062
:10C41000640B60AB05000000000000000000005B42
:10C420002D80B11600000000000000632D80C916A9
:10C43000C0660B60A70500000000000000000000BF
:10C4400000000000000000000000000000000000EC
:10C4500000000000000000000000000000000000DC
:10C4600000000000000000000000000000000000CC
:10C4700000000000000000000000000000000000BC
:10C4800000000000000000000000000000000000AC
:10C49000000000000000004B05000058470000C0ED
:08C4A00052010000D61100005A
:10C4E00030600A90813900081601287805BE201BAB
:10C4F000B8837C40100A8241380808C12290849A8F
:10C500005014AA4259A80B8581329006DD901C0078
:10C5100000000000305800008405005058000086DC
:10C52000050370580000880520905800048A4503D0
:10C53000000000089F09030701090201900B25056F
:10C54000A002F00008FF09030B4901700702080070
:10C5500004010008BF0903070109020B55028E0000
:10C5600008F0090202930B3D02FA0008FF090307D5
:10C570000109000B3105800170060807060800005C
:10C5800008FF0211090003800B310A1702FD0008A1
:10C590009F09020B2503800A1407BF02FE00085FF3
:10C5A0000300090307010902060502FA0B3D070310
:10C5B0000B3807030B3507030008FF0903070409BD
:10C5C000020B3105800110060807080800000878F2
:10C5D000090201800B1902F80008AF09010B1907C5
:10C5E0005802FF0000000000000000000000531E81
:10C5F0000000000000005B1E0000000000000000C2
:10C60000000000003B2D0000000000C8094052005F
:10C61000B202101700000000000000732D80C0005F
:10C6200044062030000000000000000030D902C89D
:10C630000C405800000000000000000030D902C883
:10C640000C404E00000000000000003B2D80A400C4
:10C650006405202E00000000000000732D80C00043
:10C660004406202B000000000000000000005B2DAD
:10C6700080B00000000000000000632D80C800644E
:10C6800006202700EB0D80F4004C2A00D61B00E9A1
:10C6900001480FC0A40260BD0100000000000000BE
:10C6A00000305601480A00000000000000000000B1
:08C6B000305601480A40480021
:10C6E0002740096C0135700704C1253005B5001AD3
:10C6F000940378B00FF8413FF007FF202288849917
:10C700004014AA8259B00B00000000100000000283
:10C71000000030000000040000500000000600008F
:10C7200070000000080000000000089F09030701D6
:10C73000090201900B2505A002F000089F09030BD8
:10C7400049017007020800040100085F090307019E
:10C7500009020B55029E0008F0090202930B3D02EC
:10C76000FA00089F0903070109000B3105800170D9
:10C770000608070608000008FF0211090003800BE5
:10C78000310A1702FD00083F09020B2503800A1435
:10C7900007BF02FF00085F03000903070109020643
:10C7A0000502FA0B3D07030B3807030B350703009F
:10C7B00008FF0903070409020B3105800110060870
:10C7C000070808000008F8090201800B0D02F900B3
:10C7D000084F09010B19075802FF00000000003B39
:10C7E000290000C8090000E4042029005901880B31
:10C7F0000000000000309702880B40600022031008
:10C80000180000000083290000080B406400320378
:10C8100010160000000073290000880B40640032ED
:10C82000039013000000003B290000C8094052009B
:10C83000B20210170000000073290000880B40604E
:10C8400000220390150000000000000000B09502D7
:10C85000C80A4058000063290000000000080B408F
:06C8600064003203901396
:10C8A0001EA004E8801DC0037A800FF80140200814
:10C8B00008812140048A8011380248E00A00020001
:10C8C000004000000008FF0903070209020B2505CC
:10C8D000200140060807400800000000000000009A
:10C8E0000000000000000000CB040000000000C0B9
:10C8F00032010000000000C032010000000000B062
:06C900004C00000000FFE6
:10C9200077002A8405BB901840C36C500ED1413E5D
:10C930004C081AB124A444993013678250600A53FA
:10C94000112C9E45BEE8182BE3689C8DC2D139603E
:10C95000C7F5E01F1C648884113CB2484E492D89FC
:10C9600026E8849F38948E92539E4A57B12B8D456A
:10C97000B51497E9325EE80B83293140C6CC289A7A
:10C9800051636CAACDB8E1371027E5541DB9737A0D
:10C99000724FF2C93E030800001B0000A8B50080DA
:10C9A0009B2B0000000200002090180002090020CC
:10C9B00090004C020900259000540E09C0249000FC
:10C9C0004C020900259000540209C22490504C02E8
:10C9D0008905259060540289C62490704C0289070D
:10C9E0002590905C0E89C64460C27C04A70C4880E8
:10C9F000D28404A98D48883ECE48A0EA90042C4FEA
:10CA0000E9B01A100289D7249080510289582590E4
:10CA1000904D0289D92490A0510289D8E590904D7B
:10CA200082EF74E63482F07C263584F164663582C8
:10CA3000F26CE63482C984E63482C984263584C91E
:10CA40008C66358EC98CE6348CF8CCE7348CF8CC07
:10CA500027358CF8CC67358CF8CCE7348CF8CCE7EC
:10CA6000348CF8CC273588EDCCE73590EE285A0386
:10CA7000090308FF0701090201900B3105A002F02C
:10CA80000008FF0903070209020B31017005D007F6
:10CA90000202F8040100090206050B3108FF02F04A
:10CAA0000706020007160A2500090308FF07010907
:10CAB0000006050B3D02F007060200072002F00009
:10CAC000090308FF07010902015006010B310705A0
:10CAD00002FE00090201800B3D08C00208070202A5
:10CAE000F00702020007160A3400090308FF02FCDF
:10CAF000000300090308FF07010902060502FF0BF6
:10CB00003D07030B3807030B3407030B31070304FE
:10CB100007000300090308FF07010902060502FFD9
:10CB20000B3D07030B3807030B3507030B310703D6
:10CB30000407000300090308FF07010902060502B4
:10CB4000FF0B3D07030B3807030B3607030B3107B9
:10CB500003040700090308FF0701090006050B3D50
:10CB600002F00706020007060A2500090308FF0273
:10CB7000F00008C4090006050B3D02F0070602009C
:10CB800007060A250000006B0400200D2C23582303
:10CB900000B4818044C0349006D2C03202608D401F
:10CBA0001A0011006B04D200002C23008035020013
:10CBB0009006806504000000947F000000000000E3
:10CBC0000000000000000038008B4562892596189F
:10CBD00012039018C2425800C2424A48090121205B
:10CBE000002B1D000000000000000000000000CB32
:10CBF00008116A8D48230DA481658408D00C421168
:10CC000001D608A481658408B546200DA4816584F9
:10CC100008B546208D34D248036B0400200D2C2328
